{
  "_format": "hh-sol-artifact-1",
  "contractName": "HealthRecordRegistryV2",
  "sourceName": "src/HealthRecordRegistryV2.sol",
  "abi": [
    {
      "inputs": [],
      "stateMutability": "nonpayable",
      "type": "constructor"
    },
    {
      "anonymous": false,
      "inputs": [
        {
          "indexed": true,
          "internalType": "uint256",
          "name": "tokenId",
          "type": "uint256"
        },
        {
          "indexed": true,
          "internalType": "string",
          "name": "patientId",
          "type": "string"
        },
        {
          "indexed": true,
          "internalType": "address",
          "name": "requester",
          "type": "address"
        },
        {
          "indexed": false,
          "internalType": "uint256",
          "name": "expiresAt",
          "type": "uint256"
        },
        {
          "indexed": false,
          "internalType": "bool",
          "name": "isEmergency",
          "type": "bool"
        }
      ],
      "name": "AccessGranted",
      "type": "event"
    },
    {
      "anonymous": false,
      "inputs": [
        {
          "indexed": true,
          "internalType": "uint256",
          "name": "tokenId",
          "type": "uint256"
        },
        {
          "indexed": true,
          "internalType": "string",
          "name": "patientId",
          "type": "string"
        },
        {
          "indexed": true,
          "internalType": "address",
          "name": "requester",
          "type": "address"
        }
      ],
      "name": "AccessRevoked",
      "type": "event"
    },
    {
      "anonymous": false,
      "inputs": [
        {
          "indexed": true,
          "internalType": "string",
          "name": "recordId",
          "type": "string"
        },
        {
          "indexed": true,
          "internalType": "address",
          "name": "accessor",
          "type": "address"
        },
        {
          "indexed": false,
          "internalType": "string",
          "name": "action",
          "type": "string"
        },
        {
          "indexed": false,
          "internalType": "uint256",
          "name": "timestamp",
          "type": "uint256"
        }
      ],
      "name": "AuditLogged",
      "type": "event"
    },
    {
      "anonymous": false,
      "inputs": [
        {
          "indexed": true,
          "internalType": "string",
          "name": "patientId",
          "type": "string"
        },
        {
          "indexed": true,
          "internalType": "address",
          "name": "responder",
          "type": "address"
        },
        {
          "indexed": false,
          "internalType": "uint256",
          "name": "timestamp",
          "type": "uint256"
        }
      ],
      "name": "EmergencyAccessTriggered",
      "type": "event"
    },
    {
      "anonymous": false,
      "inputs": [
        {
          "indexed": true,
          "internalType": "string",
          "name": "patientId",
          "type": "string"
        },
        {
          "indexed": true,
          "internalType": "address",
          "name": "guardian",
          "type": "address"
        }
      ],
      "name": "GuardianAdded",
      "type": "event"
    },
    {
      "anonymous": false,
      "inputs": [
        {
          "indexed": true,
          "internalType": "string",
          "name": "recordId",
          "type": "string"
        },
        {
          "indexed": true,
          "internalType": "string",
          "name": "patientId",
          "type": "string"
        },
        {
          "indexed": false,
          "internalType": "string",
          "name": "ipfsCID",
          "type": "string"
        },
        {
          "indexed": true,
          "internalType": "address",
          "name": "uploadedBy",
          "type": "address"
        },
        {
          "indexed": false,
          "internalType": "uint256",
          "name": "timestamp",
          "type": "uint256"
        }
      ],
      "name": "RecordRegistered",
      "type": "event"
    },
    {
      "anonymous": false,
      "inputs": [
        {
          "indexed": true,
          "internalType": "bytes32",
          "name": "role",
          "type": "bytes32"
        },
        {
          "indexed": true,
          "internalType": "bytes32",
          "name": "previousAdminRole",
          "type": "bytes32"
        },
        {
          "indexed": true,
          "internalType": "bytes32",
          "name": "newAdminRole",
          "type": "bytes32"
        }
      ],
      "name": "RoleAdminChanged",
      "type": "event"
    },
    {
      "anonymous": false,
      "inputs": [
        {
          "indexed": true,
          "internalType": "bytes32",
          "name": "role",
          "type": "bytes32"
        },
        {
          "indexed": true,
          "internalType": "address",
          "name": "account",
          "type": "address"
        },
        {
          "indexed": true,
          "internalType": "address",
          "name": "sender",
          "type": "address"
        }
      ],
      "name": "RoleGranted",
      "type": "event"
    },
    {
      "anonymous": false,
      "inputs": [
        {
          "indexed": true,
          "internalType": "bytes32",
          "name": "role",
          "type": "bytes32"
        },
        {
          "indexed": true,
          "internalType": "address",
          "name": "account",
          "type": "address"
        },
        {
          "indexed": true,
          "internalType": "address",
          "name": "sender",
          "type": "address"
        }
      ],
      "name": "RoleRevoked",
      "type": "event"
    },
    {
      "inputs": [],
      "name": "DEFAULT_ADMIN_ROLE",
      "outputs": [
        {
          "internalType": "bytes32",
          "name": "",
          "type": "bytes32"
        }
      ],
      "stateMutability": "view",
      "type": "function"
    },
    {
      "inputs": [],
      "name": "EMERGENCY_RESPONDER_ROLE",
      "outputs": [
        {
          "internalType": "bytes32",
          "name": "",
          "type": "bytes32"
        }
      ],
      "stateMutability": "view",
      "type": "function"
    },
    {
      "inputs": [],
      "name": "HOSPITAL_ROLE",
      "outputs": [
        {
          "internalType": "bytes32",
          "name": "",
          "type": "bytes32"
        }
      ],
      "stateMutability": "view",
      "type": "function"
    },
    {
      "inputs": [],
      "name": "INSURER_ROLE",
      "outputs": [
        {
          "internalType": "bytes32",
          "name": "",
          "type": "bytes32"
        }
      ],
      "stateMutability": "view",
      "type": "function"
    },
    {
      "inputs": [
        {
          "internalType": "uint256",
          "name": "",
          "type": "uint256"
        }
      ],
      "name": "accessTokens",
      "outputs": [
        {
          "internalType": "string",
          "name": "patientId",
          "type": "string"
        },
        {
          "internalType": "address",
          "name": "requester",
          "type": "address"
        },
        {
          "internalType": "uint256",
          "name": "expiresAt",
          "type": "uint256"
        },
        {
          "internalType": "bool",
          "name": "active",
          "type": "bool"
        },
        {
          "internalType": "uint256",
          "name": "grantedAt",
          "type": "uint256"
        },
        {
          "internalType": "bool",
          "name": "isEmergency",
          "type": "bool"
        }
      ],
      "stateMutability": "view",
      "type": "function"
    },
    {
      "inputs": [
        {
          "internalType": "string",
          "name": "patientId",
          "type": "string"
        },
        {
          "internalType": "address",
          "name": "guardian",
          "type": "address"
        }
      ],
      "name": "addGuardian",
      "outputs": [],
      "stateMutability": "nonpayable",
      "type": "function"
    },
    {
      "inputs": [
        {
          "internalType": "address",
          "name": "requester",
          "type": "address"
        },
        {
          "internalType": "string",
          "name": "patientId",
          "type": "string"
        }
      ],
      "name": "checkAccess",
      "outputs": [
        {
          "internalType": "bool",
          "name": "",
          "type": "bool"
        }
      ],
      "stateMutability": "view",
      "type": "function"
    },
    {
      "inputs": [
        {
          "internalType": "string",
          "name": "patientId",
          "type": "string"
        }
      ],
      "name": "emergencyAccess",
      "outputs": [],
      "stateMutability": "nonpayable",
      "type": "function"
    },
    {
      "inputs": [
        {
          "internalType": "uint256",
          "name": "tokenId",
          "type": "uint256"
        }
      ],
      "name": "getAccessToken",
      "outputs": [
        {
          "internalType": "string",
          "name": "",
          "type": "string"
        },
        {
          "internalType": "address",
          "name": "",
          "type": "address"
        },
        {
          "internalType": "uint256",
          "name": "",
          "type": "uint256"
        },
        {
          "internalType": "bool",
          "name": "",
          "type": "bool"
        },
        {
          "internalType": "uint256",
          "name": "",
          "type": "uint256"
        },
        {
          "internalType": "bool",
          "name": "",
          "type": "bool"
        }
      ],
      "stateMutability": "view",
      "type": "function"
    },
    {
      "inputs": [
        {
          "internalType": "string",
          "name": "recordId",
          "type": "string"
        }
      ],
      "name": "getRecord",
      "outputs": [
        {
          "internalType": "string",
          "name": "",
          "type": "string"
        },
        {
          "internalType": "string",
          "name": "",
          "type": "string"
        },
        {
          "internalType": "bytes32",
          "name": "",
          "type": "bytes32"
        },
        {
          "internalType": "address",
          "name": "",
          "type": "address"
        },
        {
          "internalType": "uint256",
          "name": "",
          "type": "uint256"
        },
        {
          "internalType": "bool",
          "name": "",
          "type": "bool"
        }
      ],
      "stateMutability": "view",
      "type": "function"
    },
    {
      "inputs": [
        {
          "internalType": "bytes32",
          "name": "role",
          "type": "bytes32"
        }
      ],
      "name": "getRoleAdmin",
      "outputs": [
        {
          "internalType": "bytes32",
          "name": "",
          "type": "bytes32"
        }
      ],
      "stateMutability": "view",
      "type": "function"
    },
    {
      "inputs": [
        {
          "internalType": "string",
          "name": "patientId",
          "type": "string"
        },
        {
          "internalType": "address",
          "name": "requester",
          "type": "address"
        },
        {
          "internalType": "uint256",
          "name": "durationInSeconds",
          "type": "uint256"
        }
      ],
      "name": "grantAccess",
      "outputs": [],
      "stateMutability": "nonpayable",
      "type": "function"
    },
    {
      "inputs": [
        {
          "internalType": "bytes32",
          "name": "role",
          "type": "bytes32"
        },
        {
          "internalType": "address",
          "name": "account",
          "type": "address"
        }
      ],
      "name": "grantRole",
      "outputs": [],
      "stateMutability": "nonpayable",
      "type": "function"
    },
    {
      "inputs": [
        {
          "internalType": "string",
          "name": "",
          "type": "string"
        },
        {
          "internalType": "uint256",
          "name": "",
          "type": "uint256"
        }
      ],
      "name": "guardians",
      "outputs": [
        {
          "internalType": "address",
          "name": "",
          "type": "address"
        }
      ],
      "stateMutability": "view",
      "type": "function"
    },
    {
      "inputs": [
        {
          "internalType": "address",
          "name": "",
          "type": "address"
        },
        {
          "internalType": "string",
          "name": "",
          "type": "string"
        }
      ],
      "name": "hasAccess",
      "outputs": [
        {
          "internalType": "bool",
          "name": "",
          "type": "bool"
        }
      ],
      "stateMutability": "view",
      "type": "function"
    },
    {
      "inputs": [
        {
          "internalType": "bytes32",
          "name": "role",
          "type": "bytes32"
        },
        {
          "internalType": "address",
          "name": "account",
          "type": "address"
        }
      ],
      "name": "hasRole",
      "outputs": [
        {
          "internalType": "bool",
          "name": "",
          "type": "bool"
        }
      ],
      "stateMutability": "view",
      "type": "function"
    },
    {
      "inputs": [
        {
          "internalType": "string",
          "name": "recordId",
          "type": "string"
        },
        {
          "internalType": "address",
          "name": "accessor",
          "type": "address"
        },
        {
          "internalType": "string",
          "name": "action",
          "type": "string"
        }
      ],
      "name": "logAccess",
      "outputs": [],
      "stateMutability": "nonpayable",
      "type": "function"
    },
    {
      "inputs": [
        {
          "internalType": "string",
          "name": "",
          "type": "string"
        },
        {
          "internalType": "uint256",
          "name": "",
          "type": "uint256"
        }
      ],
      "name": "patientAccessTokens",
      "outputs": [
        {
          "internalType": "uint256",
          "name": "",
          "type": "uint256"
        }
      ],
      "stateMutability": "view",
      "type": "function"
    },
    {
      "inputs": [
        {
          "internalType": "string",
          "name": "",
          "type": "string"
        }
      ],
      "name": "records",
      "outputs": [
        {
          "internalType": "string",
          "name": "patientId",
          "type": "string"
        },
        {
          "internalType": "string",
          "name": "ipfsCID",
          "type": "string"
        },
        {
          "internalType": "bytes32",
          "name": "metadataHash",
          "type": "bytes32"
        },
        {
          "internalType": "address",
          "name": "uploadedBy",
          "type": "address"
        },
        {
          "internalType": "uint256",
          "name": "timestamp",
          "type": "uint256"
        },
        {
          "internalType": "bool",
          "name": "exists",
          "type": "bool"
        }
      ],
      "stateMutability": "view",
      "type": "function"
    },
    {
      "inputs": [
        {
          "internalType": "string",
          "name": "recordId",
          "type": "string"
        },
        {
          "internalType": "string",
          "name": "patientId",
          "type": "string"
        },
        {
          "internalType": "string",
          "name": "ipfsCID",
          "type": "string"
        },
        {
          "internalType": "bytes32",
          "name": "metadataHash",
          "type": "bytes32"
        }
      ],
      "name": "registerDocument",
      "outputs": [],
      "stateMutability": "nonpayable",
      "type": "function"
    },
    {
      "inputs": [
        {
          "internalType": "bytes32",
          "name": "role",
          "type": "bytes32"
        },
        {
          "internalType": "address",
          "name": "account",
          "type": "address"
        }
      ],
      "name": "renounceRole",
      "outputs": [],
      "stateMutability": "nonpayable",
      "type": "function"
    },
    {
      "inputs": [
        {
          "internalType": "uint256",
          "name": "tokenId",
          "type": "uint256"
        }
      ],
      "name": "revokeAccess",
      "outputs": [],
      "stateMutability": "nonpayable",
      "type": "function"
    },
    {
      "inputs": [
        {
          "internalType": "bytes32",
          "name": "role",
          "type": "bytes32"
        },
        {
          "internalType": "address",
          "name": "account",
          "type": "address"
        }
      ],
      "name": "revokeRole",
      "outputs": [],
      "stateMutability": "nonpayable",
      "type": "function"
    },
    {
      "inputs": [
        {
          "internalType": "bytes4",
          "name": "interfaceId",
          "type": "bytes4"
        }
      ],
      "name": "supportsInterface",
      "outputs": [
        {
          "internalType": "bool",
          "name": "",
          "type": "bool"
        }
      ],
      "stateMutability": "view",
      "type": "function"
    },
    {
      "inputs": [
        {
          "internalType": "uint256",
          "name": "tokenId",
          "type": "uint256"
        }
      ],
      "name": "verifyAccessToken",
      "outputs": [
        {
          "internalType": "bool",
          "name": "",
          "type": "bool"
        }
      ],
      "stateMutability": "view",
      "type": "function"
    }
  ],
  "bytecode": "0x608060405234801561001057600080fd5b5061001c600033610021565b6100c0565b6000828152602081815260408083206001600160a01b038516845290915290205460ff166100bc576000828152602081815260408083206001600160a01b03851684529091529020805460ff1916600117905561007b3390565b6001600160a01b0316816001600160a01b0316837f2f8788117e7eff1d82e926ec794901d17c78024a50270940304540a733656f0d60405160405180910390a45b5050565b611e98806100cf6000396000f3fe608060405234801561001057600080fd5b50600436106101725760003560e01c806391d14854116100de578063d547741f11610097578063e1b97d6911610071578063e1b97d69146103c4578063e5492e2b146103d7578063f11f7084146103ea578063f6ba6678146103fd57600080fd5b8063d547741f14610373578063d9cd701f14610386578063dcef0b5d1461039957600080fd5b806391d14854146102e0578063991acf6e146102f3578063a217fddf14610306578063a5657a911461030e578063a8ccb29114610321578063bcb8e0741461036057600080fd5b806325db80fc1161013057806325db80fc1461025a5780632f2ff15d1461026d57806336568abe14610280578063541e771d146102935780637af6ac30146102a65780637f52d804146102b957600080fd5b8062af701f1461017757806301ffc9a7146101a5578063056c9989146101c857806311dd8845146101fd5780632029285914610222578063248a9ca314610237575b600080fd5b61018a6101853660046116e6565b610424565b60405161019c9695949392919061174f565b60405180910390f35b6101b86101b3366004611796565b6104f1565b604051901515815260200161019c565b6101ef7feb0a07781e3ee843c0d85f7381c2e1a1e1a6ea86bcdcd944ef649d46e7dcd97281565b60405190815260200161019c565b61021061020b366004611863565b610528565b60405161019c969594939291906118a0565b610235610230366004611912565b6106f2565b005b6101ef6102453660046116e6565b60009081526020819052604090206001015490565b6101ef610268366004611960565b610781565b61023561027b3660046119a5565b6107c1565b61023561028e3660046119a5565b6107eb565b6102106102a1366004611863565b61086e565b6102356102b43660046119c8565b6109cb565b6101ef7fbc5e62d12c2ceca70897f1b45b6db8f69577a836114666e7ae0326805e5f928781565b6101b86102ee3660046119a5565b610a29565b61018a6103013660046116e6565b610a52565b6101ef600081565b6101b861031c366004611a3c565b610b92565b6101b861032f366004611a3c565b6006602090815260009283526040909220815180830184018051928152908401929093019190912091525460ff1681565b6101b861036e3660046116e6565b610bd3565b6102356103813660046119a5565b610ce7565b610235610394366004611863565b610d0c565b6103ac6103a7366004611960565b610f2e565b6040516001600160a01b03909116815260200161019c565b6102356103d23660046116e6565b610f75565b6102356103e5366004611a8a565b611077565b6102356103f8366004611ae1565b611232565b6101ef7fc8f5b4140cca307cd927e59cbeea8291bffeee228fc677f0fa059aef7b4dd8d581565b60046020526000908152604090208054819061043f90611b71565b80601f016020809104026020016040519081016040528092919081815260200182805461046b90611b71565b80156104b85780601f1061048d576101008083540402835291602001916104b8565b820191906000526020600020905b81548152906001019060200180831161049b57829003601f168201915b505050600184015460028501546003860154600487015460059097015495966001600160a01b039093169591945060ff90811693501686565b60006001600160e01b03198216637965db0b60e01b148061052257506301ffc9a760e01b6001600160e01b03198316145b92915050565b60608060008060008060006003886040516105439190611bab565b90815260200160405180910390206040518060c001604052908160008201805461056c90611b71565b80601f016020809104026020016040519081016040528092919081815260200182805461059890611b71565b80156105e55780601f106105ba576101008083540402835291602001916105e5565b820191906000526020600020905b8154815290600101906020018083116105c857829003601f168201915b505050505081526020016001820180546105fe90611b71565b80601f016020809104026020016040519081016040528092919081815260200182805461062a90611b71565b80156106775780601f1061064c57610100808354040283529160200191610677565b820191906000526020600020905b81548152906001019060200180831161065a57829003601f168201915b5050509183525050600282015460208083019190915260038301546001600160a01b0316604080840191909152600484015460608085019190915260059094015460ff16151560809384015284519185015190850151938501519285015160a090950151919d909c50929a5090985091965090945092505050565b6007826040516107029190611bab565b9081526040519081900360209081018220805460018101825560009182529190200180546001600160a01b0384166001600160a01b031990911681179091559061074d908490611bab565b604051908190038120907f1502f1e3e5d0807570f2e293c479ab4007e78d104077a97f3642b6f3e3233b9c90600090a35050565b815160208184018101805160058252928201918501919091209190528054829081106107ac57600080fd5b90600052602060002001600091509150505481565b6000828152602081905260409020600101546107dc816113e9565b6107e683836113f6565b505050565b6001600160a01b03811633146108605760405162461bcd60e51b815260206004820152602f60248201527f416363657373436f6e74726f6c3a2063616e206f6e6c792072656e6f756e636560448201526e103937b632b9903337b91039b2b63360891b60648201526084015b60405180910390fd5b61086a828261147a565b5050565b805160208183018101805160038252928201919093012091528054819061089490611b71565b80601f01602080910402602001604051908101604052809291908181526020018280546108c090611b71565b801561090d5780601f106108e25761010080835404028352916020019161090d565b820191906000526020600020905b8154815290600101906020018083116108f057829003601f168201915b50505050509080600101805461092290611b71565b80601f016020809104026020016040519081016040528092919081815260200182805461094e90611b71565b801561099b5780601f106109705761010080835404028352916020019161099b565b820191906000526020600020905b81548152906001019060200180831161097e57829003601f168201915b50505050600283015460038401546004850154600590950154939491936001600160a01b03909116925060ff1686565b816001600160a01b0316836040516109e39190611bab565b60405180910390207fe4127093a20c11d148206b5b5285e41668b5f5bb01a28069be7352458fb912a18342604051610a1c929190611bc7565b60405180910390a3505050565b6000918252602082815260408084206001600160a01b0393909316845291905290205460ff1690565b6060600080600080600080600460008981526020019081526020016000206040518060c0016040529081600082018054610a8b90611b71565b80601f0160208091040260200160405190810160405280929190818152602001828054610ab790611b71565b8015610b045780601f10610ad957610100808354040283529160200191610b04565b820191906000526020600020905b815481529060010190602001808311610ae757829003601f168201915b505050918352505060018201546001600160a01b03166020808301919091526002830154604080840191909152600384015460ff90811615156060808601919091526004860154608080870191909152600590960154909116151560a0948501528551928601519186015190860151948601519590930151919d909c50919a50919850919650945092505050565b6001600160a01b0382166000908152600660205260408082209051610bb8908490611bab565b9081526040519081900360200190205460ff16905092915050565b600081815260046020526040808220815160c0810190925280548392919082908290610bfe90611b71565b80601f0160208091040260200160405190810160405280929190818152602001828054610c2a90611b71565b8015610c775780601f10610c4c57610100808354040283529160200191610c77565b820191906000526020600020905b815481529060010190602001808311610c5a57829003601f168201915b505050918352505060018201546001600160a01b0316602082015260028201546040820152600382015460ff90811615156060808401919091526004840154608084015260059093015416151560a0909101528101519091508015610ce0575080604001514211155b9392505050565b600082815260208190526040902060010154610d02816113e9565b6107e6838361147a565b7fbc5e62d12c2ceca70897f1b45b6db8f69577a836114666e7ae0326805e5f9287610d36816113e9565b610d44600280546001019055565b6000610d4f60025490565b90506154606000610d608242611bff565b6040805160c0810182528781523360208083019190915281830184905260016060830181905242608084015260a08301526000878152600490915291909120815192935090918190610db29082611c60565b5060208201516001820180546001600160a01b039092166001600160a01b03199092169190911790556040808301516002830155606083015160038301805491151560ff199283161790556080840151600484015560a0909301516005928301805491151591909416179092559051610e2c908790611bab565b9081526040805160209281900383018120805460018082018355600092835285832090910188905533825260069094529190912090610e6c908890611bab565b908152604051908190036020018120805492151560ff19909316929092179091553390610e9a908790611bab565b604051908190038120428252907fa4e70d2d54d3954fd14f6be85982bdae7e6a5653786e9c08b7335fdd72d205c09060200160405180910390a36040513390610ee4908790611bab565b60408051918290038220848352600160208401529186917f97403cd6cd15182fede275726169be342743ecb303d459ac1de36a66219d2d4491015b60405180910390a45050505050565b81516020818401810180516007825292820191850191909120919052805482908110610f5957600080fd5b6000918252602090912001546001600160a01b03169150829050565b6000818152600460205260409020600381015460ff16610fd05760405162461bcd60e51b8152602060048201526016602482015275546f6b656e20616c726561647920696e61637469766560501b6044820152606401610857565b60038101805460ff1916905560018101546001600160a01b03166000908152600660205260408082209051611006908490611d20565b908152604051908190036020018120805492151560ff199093169290921790915560018201546001600160a01b031690611041908390611d20565b6040519081900381209084907fd961890b74bbdbb62df087b1c5f5d0b7e4020004685ad37e50aa9190e949681d90600090a45050565b611085600280546001019055565b600061109060025490565b9050600061109e8342611bff565b6040805160c0810182528781526001600160a01b03871660208083019190915281830184905260016060830152426080830152600060a083018190528681526004909152919091208151929350909181906110f99082611c60565b5060208201516001820180546001600160a01b039092166001600160a01b03199092169190911790556040808301516002830155606083015160038301805491151560ff199283161790556080840151600484015560a0909301516005928301805491151591909416179092559051611173908790611bab565b908152604080516020928190038301812080546001808201835560009283528583209091018790556001600160a01b0389168252600690945291909120906111bc908890611bab565b908152604051908190036020018120805492151560ff19909316929092179091556001600160a01b038516906111f3908790611bab565b60408051918290038220848352600060208401529185917f97403cd6cd15182fede275726169be342743ecb303d459ac1de36a66219d2d449101610f1f565b7fc8f5b4140cca307cd927e59cbeea8291bffeee228fc677f0fa059aef7b4dd8d561125c816113e9565b60038560405161126c9190611bab565b9081526040519081900360200190206005015460ff16156112c75760405162461bcd60e51b81526020600482015260156024820152745265636f726420616c72656164792065786973747360581b6044820152606401610857565b6040805160c08101825285815260208101859052808201849052336060820152426080820152600160a08201529051600390611304908890611bab565b908152604051908190036020019020815181906113219082611c60565b50602082015160018201906113369082611c60565b50604082810151600283015560608301516003830180546001600160a01b0319166001600160a01b039092169190911790556080830151600483015560a0909201516005909101805460ff191691151591909117905551339061139a908690611bab565b6040518091039020866040516113b09190611bab565b60405180910390207f874707e2d1da52416c11042b7804f8fde430f816a6e247ca8cf1479b55fb91dd8642604051610f1f929190611bc7565b6113f381336114df565b50565b6114008282610a29565b61086a576000828152602081815260408083206001600160a01b03851684529091529020805460ff191660011790556114363390565b6001600160a01b0316816001600160a01b0316837f2f8788117e7eff1d82e926ec794901d17c78024a50270940304540a733656f0d60405160405180910390a45050565b6114848282610a29565b1561086a576000828152602081815260408083206001600160a01b0385168085529252808320805460ff1916905551339285917ff6391f5c32d9c69d2a47ea670b442974b53935d1edc7fd64eb21e047a839171b9190a45050565b6114e98282610a29565b61086a576114f681611538565b61150183602061154a565b604051602001611512929190611d96565b60408051601f198184030181529082905262461bcd60e51b825261085791600401611e0b565b60606105226001600160a01b03831660145b60606000611559836002611e1e565b611564906002611bff565b67ffffffffffffffff81111561157c5761157c6117c0565b6040519080825280601f01601f1916602001820160405280156115a6576020820181803683370190505b509050600360fc1b816000815181106115c1576115c1611e35565b60200101906001600160f81b031916908160001a905350600f60fb1b816001815181106115f0576115f0611e35565b60200101906001600160f81b031916908160001a9053506000611614846002611e1e565b61161f906001611bff565b90505b6001811115611697576f181899199a1a9b1b9c1cb0b131b232b360811b85600f166010811061165357611653611e35565b1a60f81b82828151811061166957611669611e35565b60200101906001600160f81b031916908160001a90535060049490941c9361169081611e4b565b9050611622565b508315610ce05760405162461bcd60e51b815260206004820181905260248201527f537472696e67733a20686578206c656e67746820696e73756666696369656e746044820152606401610857565b6000602082840312156116f857600080fd5b5035919050565b60005b8381101561171a578181015183820152602001611702565b50506000910152565b6000815180845261173b8160208601602086016116ff565b601f01601f19169290920160200192915050565b60c08152600061176260c0830189611723565b6001600160a01b0397909716602083015250604081019490945291151560608401526080830152151560a090910152919050565b6000602082840312156117a857600080fd5b81356001600160e01b031981168114610ce057600080fd5b634e487b7160e01b600052604160045260246000fd5b600082601f8301126117e757600080fd5b813567ffffffffffffffff80821115611802576118026117c0565b604051601f8301601f19908116603f0116810190828211818310171561182a5761182a6117c0565b8160405283815286602085880101111561184357600080fd5b836020870160208301376000602085830101528094505050505092915050565b60006020828403121561187557600080fd5b813567ffffffffffffffff81111561188c57600080fd5b611898848285016117d6565b949350505050565b60c0815260006118b360c0830189611723565b82810360208401526118c58189611723565b604084019790975250506001600160a01b039390931660608401526080830191909152151560a09091015292915050565b80356001600160a01b038116811461190d57600080fd5b919050565b6000806040838503121561192557600080fd5b823567ffffffffffffffff81111561193c57600080fd5b611948858286016117d6565b925050611957602084016118f6565b90509250929050565b6000806040838503121561197357600080fd5b823567ffffffffffffffff81111561198a57600080fd5b611996858286016117d6565b95602094909401359450505050565b600080604083850312156119b857600080fd5b82359150611957602084016118f6565b6000806000606084860312156119dd57600080fd5b833567ffffffffffffffff808211156119f557600080fd5b611a01878388016117d6565b9450611a0f602087016118f6565b93506040860135915080821115611a2557600080fd5b50611a32868287016117d6565b9150509250925092565b60008060408385031215611a4f57600080fd5b611a58836118f6565b9150602083013567ffffffffffffffff811115611a7457600080fd5b611a80858286016117d6565b9150509250929050565b600080600060608486031215611a9f57600080fd5b833567ffffffffffffffff811115611ab657600080fd5b611ac2868287016117d6565b935050611ad1602085016118f6565b9150604084013590509250925092565b60008060008060808587031215611af757600080fd5b843567ffffffffffffffff80821115611b0f57600080fd5b611b1b888389016117d6565b95506020870135915080821115611b3157600080fd5b611b3d888389016117d6565b94506040870135915080821115611b5357600080fd5b50611b60878288016117d6565b949793965093946060013593505050565b600181811c90821680611b8557607f821691505b602082108103611ba557634e487b7160e01b600052602260045260246000fd5b50919050565b60008251611bbd8184602087016116ff565b9190910192915050565b604081526000611bda6040830185611723565b90508260208301529392505050565b634e487b7160e01b600052601160045260246000fd5b8082018082111561052257610522611be9565b601f8211156107e657600081815260208120601f850160051c81016020861015611c395750805b601f850160051c820191505b81811015611c5857828155600101611c45565b505050505050565b815167ffffffffffffffff811115611c7a57611c7a6117c0565b611c8e81611c888454611b71565b84611c12565b602080601f831160018114611cc35760008415611cab5750858301515b600019600386901b1c1916600185901b178555611c58565b600085815260208120601f198616915b82811015611cf257888601518255948401946001909101908401611cd3565b5085821015611d105787850151600019600388901b60f8161c191681555b5050505050600190811b01905550565b6000808354611d2e81611b71565b60018281168015611d465760018114611d5b57611d8a565b60ff1984168752821515830287019450611d8a565b8760005260208060002060005b85811015611d815781548a820152908401908201611d68565b50505082870194505b50929695505050505050565b7f416363657373436f6e74726f6c3a206163636f756e7420000000000000000000815260008351611dce8160178501602088016116ff565b7001034b99036b4b9b9b4b733903937b6329607d1b6017918401918201528351611dff8160288401602088016116ff565b01602801949350505050565b602081526000610ce06020830184611723565b808202811582820484141761052257610522611be9565b634e487b7160e01b600052603260045260246000fd5b600081611e5a57611e5a611be9565b50600019019056fea2646970667358221220e9671fb22a761719ebada21e05b21ab24885e393c08f27665a9390a8870d491564736f6c63430008140033",
  "linkReferences": {},
  "deployedLinkReferences": {}
}