{
  "_format": "hh-sol-artifact-1",
  "contractName": "HealthRecordRegistry",
  "sourceName": "src/HealthRecordRegistry.sol",
  "abi": [
    {
      "inputs": [],
      "stateMutability": "nonpayable",
      "type": "constructor"
    },
    {
      "anonymous": false,
      "inputs": [
        {
          "indexed": true,
          "internalType": "uint256",
          "name": "tokenId",
          "type": "uint256"
        },
        {
          "indexed": true,
          "internalType": "string",
          "name": "patientId",
          "type": "string"
        },
        {
          "indexed": true,
          "internalType": "address",
          "name": "requester",
          "type": "address"
        },
        {
          "indexed": false,
          "internalType": "uint256",
          "name": "expiresAt",
          "type": "uint256"
        }
      ],
      "name": "AccessGranted",
      "type": "event"
    },
    {
      "anonymous": false,
      "inputs": [
        {
          "indexed": true,
          "internalType": "uint256",
          "name": "tokenId",
          "type": "uint256"
        },
        {
          "indexed": true,
          "internalType": "string",
          "name": "patientId",
          "type": "string"
        },
        {
          "indexed": true,
          "internalType": "address",
          "name": "requester",
          "type": "address"
        }
      ],
      "name": "AccessRevoked",
      "type": "event"
    },
    {
      "anonymous": false,
      "inputs": [
        {
          "indexed": true,
          "internalType": "string",
          "name": "recordId",
          "type": "string"
        },
        {
          "indexed": true,
          "internalType": "address",
          "name": "accessor",
          "type": "address"
        },
        {
          "indexed": false,
          "internalType": "string",
          "name": "action",
          "type": "string"
        },
        {
          "indexed": false,
          "internalType": "uint256",
          "name": "timestamp",
          "type": "uint256"
        }
      ],
      "name": "AuditLogged",
      "type": "event"
    },
    {
      "anonymous": false,
      "inputs": [
        {
          "indexed": true,
          "internalType": "string",
          "name": "recordId",
          "type": "string"
        },
        {
          "indexed": true,
          "internalType": "string",
          "name": "patientId",
          "type": "string"
        },
        {
          "indexed": false,
          "internalType": "string",
          "name": "ipfsCID",
          "type": "string"
        },
        {
          "indexed": true,
          "internalType": "address",
          "name": "uploadedBy",
          "type": "address"
        },
        {
          "indexed": false,
          "internalType": "uint256",
          "name": "timestamp",
          "type": "uint256"
        }
      ],
      "name": "RecordRegistered",
      "type": "event"
    },
    {
      "anonymous": false,
      "inputs": [
        {
          "indexed": true,
          "internalType": "bytes32",
          "name": "role",
          "type": "bytes32"
        },
        {
          "indexed": true,
          "internalType": "bytes32",
          "name": "previousAdminRole",
          "type": "bytes32"
        },
        {
          "indexed": true,
          "internalType": "bytes32",
          "name": "newAdminRole",
          "type": "bytes32"
        }
      ],
      "name": "RoleAdminChanged",
      "type": "event"
    },
    {
      "anonymous": false,
      "inputs": [
        {
          "indexed": true,
          "internalType": "bytes32",
          "name": "role",
          "type": "bytes32"
        },
        {
          "indexed": true,
          "internalType": "address",
          "name": "account",
          "type": "address"
        },
        {
          "indexed": true,
          "internalType": "address",
          "name": "sender",
          "type": "address"
        }
      ],
      "name": "RoleGranted",
      "type": "event"
    },
    {
      "anonymous": false,
      "inputs": [
        {
          "indexed": true,
          "internalType": "bytes32",
          "name": "role",
          "type": "bytes32"
        },
        {
          "indexed": true,
          "internalType": "address",
          "name": "account",
          "type": "address"
        },
        {
          "indexed": true,
          "internalType": "address",
          "name": "sender",
          "type": "address"
        }
      ],
      "name": "RoleRevoked",
      "type": "event"
    },
    {
      "inputs": [],
      "name": "DEFAULT_ADMIN_ROLE",
      "outputs": [
        {
          "internalType": "bytes32",
          "name": "",
          "type": "bytes32"
        }
      ],
      "stateMutability": "view",
      "type": "function"
    },
    {
      "inputs": [],
      "name": "HOSPITAL_ROLE",
      "outputs": [
        {
          "internalType": "bytes32",
          "name": "",
          "type": "bytes32"
        }
      ],
      "stateMutability": "view",
      "type": "function"
    },
    {
      "inputs": [],
      "name": "INSURER_ROLE",
      "outputs": [
        {
          "internalType": "bytes32",
          "name": "",
          "type": "bytes32"
        }
      ],
      "stateMutability": "view",
      "type": "function"
    },
    {
      "inputs": [
        {
          "internalType": "uint256",
          "name": "",
          "type": "uint256"
        }
      ],
      "name": "accessTokens",
      "outputs": [
        {
          "internalType": "string",
          "name": "patientId",
          "type": "string"
        },
        {
          "internalType": "address",
          "name": "requester",
          "type": "address"
        },
        {
          "internalType": "uint256",
          "name": "expiresAt",
          "type": "uint256"
        },
        {
          "internalType": "bool",
          "name": "active",
          "type": "bool"
        },
        {
          "internalType": "uint256",
          "name": "grantedAt",
          "type": "uint256"
        }
      ],
      "stateMutability": "view",
      "type": "function"
    },
    {
      "inputs": [
        {
          "internalType": "address",
          "name": "hospital",
          "type": "address"
        }
      ],
      "name": "addHospital",
      "outputs": [],
      "stateMutability": "nonpayable",
      "type": "function"
    },
    {
      "inputs": [
        {
          "internalType": "address",
          "name": "insurer",
          "type": "address"
        }
      ],
      "name": "addInsurer",
      "outputs": [],
      "stateMutability": "nonpayable",
      "type": "function"
    },
    {
      "inputs": [
        {
          "internalType": "address",
          "name": "requester",
          "type": "address"
        },
        {
          "internalType": "string",
          "name": "patientId",
          "type": "string"
        }
      ],
      "name": "checkAccess",
      "outputs": [
        {
          "internalType": "bool",
          "name": "",
          "type": "bool"
        }
      ],
      "stateMutability": "view",
      "type": "function"
    },
    {
      "inputs": [
        {
          "internalType": "uint256",
          "name": "tokenId",
          "type": "uint256"
        }
      ],
      "name": "getAccessToken",
      "outputs": [
        {
          "internalType": "string",
          "name": "patientId",
          "type": "string"
        },
        {
          "internalType": "address",
          "name": "requester",
          "type": "address"
        },
        {
          "internalType": "uint256",
          "name": "expiresAt",
          "type": "uint256"
        },
        {
          "internalType": "bool",
          "name": "active",
          "type": "bool"
        },
        {
          "internalType": "uint256",
          "name": "grantedAt",
          "type": "uint256"
        }
      ],
      "stateMutability": "view",
      "type": "function"
    },
    {
      "inputs": [
        {
          "internalType": "string",
          "name": "recordId",
          "type": "string"
        }
      ],
      "name": "getRecord",
      "outputs": [
        {
          "internalType": "string",
          "name": "patientId",
          "type": "string"
        },
        {
          "internalType": "string",
          "name": "ipfsCID",
          "type": "string"
        },
        {
          "internalType": "bytes32",
          "name": "metadataHash",
          "type": "bytes32"
        },
        {
          "internalType": "address",
          "name": "uploadedBy",
          "type": "address"
        },
        {
          "internalType": "uint256",
          "name": "timestamp",
          "type": "uint256"
        }
      ],
      "stateMutability": "view",
      "type": "function"
    },
    {
      "inputs": [
        {
          "internalType": "bytes32",
          "name": "role",
          "type": "bytes32"
        }
      ],
      "name": "getRoleAdmin",
      "outputs": [
        {
          "internalType": "bytes32",
          "name": "",
          "type": "bytes32"
        }
      ],
      "stateMutability": "view",
      "type": "function"
    },
    {
      "inputs": [
        {
          "internalType": "string",
          "name": "patientId",
          "type": "string"
        },
        {
          "internalType": "address",
          "name": "requester",
          "type": "address"
        },
        {
          "internalType": "uint256",
          "name": "expiresAt",
          "type": "uint256"
        }
      ],
      "name": "grantAccess",
      "outputs": [
        {
          "internalType": "uint256",
          "name": "",
          "type": "uint256"
        }
      ],
      "stateMutability": "nonpayable",
      "type": "function"
    },
    {
      "inputs": [
        {
          "internalType": "bytes32",
          "name": "role",
          "type": "bytes32"
        },
        {
          "internalType": "address",
          "name": "account",
          "type": "address"
        }
      ],
      "name": "grantRole",
      "outputs": [],
      "stateMutability": "nonpayable",
      "type": "function"
    },
    {
      "inputs": [
        {
          "internalType": "address",
          "name": "",
          "type": "address"
        },
        {
          "internalType": "string",
          "name": "",
          "type": "string"
        }
      ],
      "name": "hasAccess",
      "outputs": [
        {
          "internalType": "bool",
          "name": "",
          "type": "bool"
        }
      ],
      "stateMutability": "view",
      "type": "function"
    },
    {
      "inputs": [
        {
          "internalType": "bytes32",
          "name": "role",
          "type": "bytes32"
        },
        {
          "internalType": "address",
          "name": "account",
          "type": "address"
        }
      ],
      "name": "hasRole",
      "outputs": [
        {
          "internalType": "bool",
          "name": "",
          "type": "bool"
        }
      ],
      "stateMutability": "view",
      "type": "function"
    },
    {
      "inputs": [
        {
          "internalType": "string",
          "name": "recordId",
          "type": "string"
        },
        {
          "internalType": "address",
          "name": "accessor",
          "type": "address"
        },
        {
          "internalType": "string",
          "name": "action",
          "type": "string"
        }
      ],
      "name": "logAccess",
      "outputs": [],
      "stateMutability": "nonpayable",
      "type": "function"
    },
    {
      "inputs": [
        {
          "internalType": "string",
          "name": "",
          "type": "string"
        },
        {
          "internalType": "uint256",
          "name": "",
          "type": "uint256"
        }
      ],
      "name": "patientAccessTokens",
      "outputs": [
        {
          "internalType": "uint256",
          "name": "",
          "type": "uint256"
        }
      ],
      "stateMutability": "view",
      "type": "function"
    },
    {
      "inputs": [
        {
          "internalType": "string",
          "name": "",
          "type": "string"
        }
      ],
      "name": "records",
      "outputs": [
        {
          "internalType": "string",
          "name": "patientId",
          "type": "string"
        },
        {
          "internalType": "string",
          "name": "ipfsCID",
          "type": "string"
        },
        {
          "internalType": "bytes32",
          "name": "metadataHash",
          "type": "bytes32"
        },
        {
          "internalType": "address",
          "name": "uploadedBy",
          "type": "address"
        },
        {
          "internalType": "uint256",
          "name": "timestamp",
          "type": "uint256"
        },
        {
          "internalType": "bool",
          "name": "exists",
          "type": "bool"
        }
      ],
      "stateMutability": "view",
      "type": "function"
    },
    {
      "inputs": [
        {
          "internalType": "string",
          "name": "recordId",
          "type": "string"
        },
        {
          "internalType": "string",
          "name": "patientId",
          "type": "string"
        },
        {
          "internalType": "string",
          "name": "ipfsCID",
          "type": "string"
        },
        {
          "internalType": "bytes32",
          "name": "metadataHash",
          "type": "bytes32"
        }
      ],
      "name": "registerDocument",
      "outputs": [],
      "stateMutability": "nonpayable",
      "type": "function"
    },
    {
      "inputs": [
        {
          "internalType": "bytes32",
          "name": "role",
          "type": "bytes32"
        },
        {
          "internalType": "address",
          "name": "account",
          "type": "address"
        }
      ],
      "name": "renounceRole",
      "outputs": [],
      "stateMutability": "nonpayable",
      "type": "function"
    },
    {
      "inputs": [
        {
          "internalType": "uint256",
          "name": "tokenId",
          "type": "uint256"
        }
      ],
      "name": "revokeAccess",
      "outputs": [],
      "stateMutability": "nonpayable",
      "type": "function"
    },
    {
      "inputs": [
        {
          "internalType": "bytes32",
          "name": "role",
          "type": "bytes32"
        },
        {
          "internalType": "address",
          "name": "account",
          "type": "address"
        }
      ],
      "name": "revokeRole",
      "outputs": [],
      "stateMutability": "nonpayable",
      "type": "function"
    },
    {
      "inputs": [
        {
          "internalType": "bytes4",
          "name": "interfaceId",
          "type": "bytes4"
        }
      ],
      "name": "supportsInterface",
      "outputs": [
        {
          "internalType": "bool",
          "name": "",
          "type": "bool"
        }
      ],
      "stateMutability": "view",
      "type": "function"
    }
  ],
  "bytecode": "0x608060405234801561001057600080fd5b5061001c600033610021565b6100c0565b6000828152602081815260408083206001600160a01b038516845290915290205460ff166100bc576000828152602081815260408083206001600160a01b03851684529091529020805460ff1916600117905561007b3390565b6001600160a01b0316816001600160a01b0316837f2f8788117e7eff1d82e926ec794901d17c78024a50270940304540a733656f0d60405160405180910390a45b5050565b611b4e806100cf6000396000f3fe608060405234801561001057600080fd5b50600436106101415760003560e01c806391d14854116100b8578063c1b5fb061161007c578063c1b5fb0614610318578063d547741f1461032b578063e1b97d691461033e578063e5492e2b14610351578063f11f708414610364578063f6ba66781461037757600080fd5b806391d1485414610298578063991acf6e146102ab578063a217fddf146102be578063a5657a91146102c6578063a8ccb291146102d957600080fd5b8063248a9ca31161010a578063248a9ca31461020457806325db80fc146102275780632f2ff15d1461023a57806336568abe1461024d578063541e771d146102605780637af6ac301461028557600080fd5b8062af701f1461014657806301ffc9a714610173578063056c99891461019657806311dd8845146101cb5780631b470bc7146101ef575b600080fd5b610159610154366004611381565b61039e565b60405161016a9594939291906113ea565b60405180910390f35b61018661018136600461142a565b610465565b604051901515815260200161016a565b6101bd7feb0a07781e3ee843c0d85f7381c2e1a1e1a6ea86bcdcd944ef649d46e7dcd97281565b60405190815260200161016a565b6101de6101d93660046114f7565b61049c565b60405161016a959493929190611534565b6102026101fd36600461159c565b6106a2565b005b6101bd610212366004611381565b60009081526020819052604090206001015490565b6101bd6102353660046115b7565b6106db565b6102026102483660046115fc565b61071b565b61020261025b3660046115fc565b610745565b61027361026e3660046114f7565b6107bf565b60405161016a96959493929190611628565b61020261029336600461167e565b61091c565b6101866102a63660046115fc565b6109e4565b6101596102b9366004611381565b610a0d565b6101bd600081565b6101866102d43660046116f2565b610b30565b6101866102e73660046116f2565b6006602090815260009283526040909220815180830184018051928152908401929093019190912091525460ff1681565b61020261032636600461159c565b610b71565b6102026103393660046115fc565b610ba6565b61020261034c366004611381565b610bcb565b6101bd61035f366004611740565b610ccd565b610202610372366004611797565b610eb7565b6101bd7fc8f5b4140cca307cd927e59cbeea8291bffeee228fc677f0fa059aef7b4dd8d581565b6004602052600090815260409020805481906103b990611827565b80601f01602080910402602001604051908101604052809291908181526020018280546103e590611827565b80156104325780601f1061040757610100808354040283529160200191610432565b820191906000526020600020905b81548152906001019060200180831161041557829003601f168201915b50505060018401546002850154600386015460049096015494956001600160a01b039092169490935060ff909116915085565b60006001600160e01b03198216637965db0b60e01b148061049657506301ffc9a760e01b6001600160e01b03198316145b92915050565b6060806000806000806003876040516104b59190611861565b90815260200160405180910390206040518060c00160405290816000820180546104de90611827565b80601f016020809104026020016040519081016040528092919081815260200182805461050a90611827565b80156105575780601f1061052c57610100808354040283529160200191610557565b820191906000526020600020905b81548152906001019060200180831161053a57829003601f168201915b5050505050815260200160018201805461057090611827565b80601f016020809104026020016040519081016040528092919081815260200182805461059c90611827565b80156105e95780601f106105be576101008083540402835291602001916105e9565b820191906000526020600020905b8154815290600101906020018083116105cc57829003601f168201915b50505091835250506002820154602082015260038201546001600160a01b031660408201526004820154606082015260059091015460ff16151560809091015260a081015190915061067a5760405162461bcd60e51b8152602060048201526015602482015274149958dbdc9908191bd95cc81b9bdd08195e1a5cdd605a1b60448201526064015b60405180910390fd5b8051602082015160408301516060840151608090940151929a91995097509195509350915050565b60006106ad8161107d565b6106d77fc8f5b4140cca307cd927e59cbeea8291bffeee228fc677f0fa059aef7b4dd8d58361071b565b5050565b8151602081840181018051600582529282019185019190912091905280548290811061070657600080fd5b90600052602060002001600091509150505481565b6000828152602081905260409020600101546107368161107d565b610740838361108a565b505050565b6001600160a01b03811633146107b55760405162461bcd60e51b815260206004820152602f60248201527f416363657373436f6e74726f6c3a2063616e206f6e6c792072656e6f756e636560448201526e103937b632b9903337b91039b2b63360891b6064820152608401610671565b6106d7828261110e565b80516020818301810180516003825292820191909301209152805481906107e590611827565b80601f016020809104026020016040519081016040528092919081815260200182805461081190611827565b801561085e5780601f106108335761010080835404028352916020019161085e565b820191906000526020600020905b81548152906001019060200180831161084157829003601f168201915b50505050509080600101805461087390611827565b80601f016020809104026020016040519081016040528092919081815260200182805461089f90611827565b80156108ec5780601f106108c1576101008083540402835291602001916108ec565b820191906000526020600020905b8154815290600101906020018083116108cf57829003601f168201915b50505050600283015460038401546004850154600590950154939491936001600160a01b03909116925060ff1686565b60038360405161092c9190611861565b9081526040519081900360200190206005015460ff166109865760405162461bcd60e51b8152602060048201526015602482015274149958dbdc9908191bd95cc81b9bdd08195e1a5cdd605a1b6044820152606401610671565b816001600160a01b03168360405161099e9190611861565b60405180910390207fe4127093a20c11d148206b5b5285e41668b5f5bb01a28069be7352458fb912a183426040516109d792919061187d565b60405180910390a3505050565b6000918252602082815260408084206001600160a01b0393909316845291905290205460ff1690565b60606000806000806000600460008881526020019081526020016000206040518060a0016040529081600082018054610a4590611827565b80601f0160208091040260200160405190810160405280929190818152602001828054610a7190611827565b8015610abe5780601f10610a9357610100808354040283529160200191610abe565b820191906000526020600020905b815481529060010190602001808311610aa157829003601f168201915b505050918352505060018201546001600160a01b03166020808301919091526002830154604080840191909152600384015460ff16151560608085019190915260049094015460809384015284519185015190850151938501519490920151909b919a50919850919650945092505050565b6001600160a01b0382166000908152600660205260408082209051610b56908490611861565b9081526040519081900360200190205460ff16905092915050565b6000610b7c8161107d565b6106d77feb0a07781e3ee843c0d85f7381c2e1a1e1a6ea86bcdcd944ef649d46e7dcd9728361071b565b600082815260208190526040902060010154610bc18161107d565b610740838361110e565b6000818152600460205260409020600381015460ff16610c265760405162461bcd60e51b8152602060048201526016602482015275546f6b656e20616c726561647920696e61637469766560501b6044820152606401610671565b60038101805460ff1916905560018101546001600160a01b03166000908152600660205260408082209051610c5c90849061189f565b908152604051908190036020018120805492151560ff199093169290921790915560018201546001600160a01b031690610c9790839061189f565b6040519081900381209084907fd961890b74bbdbb62df087b1c5f5d0b7e4020004685ad37e50aa9190e949681d90600090a45050565b6000428211610d1e5760405162461bcd60e51b815260206004820152601760248201527f496e76616c69642065787069726174696f6e2074696d650000000000000000006044820152606401610671565b6000610d2960025490565b9050610d39600280546001019055565b6040805160a0810182528681526001600160a01b03861660208083019190915281830186905260016060830152426080830152600084815260049091529190912081518190610d889082611963565b5060208201516001820180546001600160a01b0319166001600160a01b039092169190911790556040808301516002830155606083015160038301805460ff191691151591909117905560809092015160049091015551600590610ded908790611861565b908152604080516020928190038301812080546001808201835560009283528583209091018690556001600160a01b038916825260069094529190912090610e36908890611861565b908152604051908190036020018120805492151560ff19909316929092179091556001600160a01b03851690610e6d908790611861565b6040518091039020827fbe08b5c88dbbb9b59f5c0a92338b55e5269fceccc156e9ec693bb529ea8b063986604051610ea791815260200190565b60405180910390a4949350505050565b7fc8f5b4140cca307cd927e59cbeea8291bffeee228fc677f0fa059aef7b4dd8d5610ee18161107d565b600385604051610ef19190611861565b9081526040519081900360200190206005015460ff1615610f4c5760405162461bcd60e51b81526020600482015260156024820152745265636f726420616c72656164792065786973747360581b6044820152606401610671565b6040805160c08101825285815260208101859052808201849052336060820152426080820152600160a08201529051600390610f89908890611861565b90815260405190819003602001902081518190610fa69082611963565b5060208201516001820190610fbb9082611963565b50604082810151600283015560608301516003830180546001600160a01b0319166001600160a01b039092169190911790556080830151600483015560a0909201516005909101805460ff191691151591909117905551339061101f908690611861565b6040518091039020866040516110359190611861565b60405180910390207f874707e2d1da52416c11042b7804f8fde430f816a6e247ca8cf1479b55fb91dd864260405161106e92919061187d565b60405180910390a45050505050565b6110878133611173565b50565b61109482826109e4565b6106d7576000828152602081815260408083206001600160a01b03851684529091529020805460ff191660011790556110ca3390565b6001600160a01b0316816001600160a01b0316837f2f8788117e7eff1d82e926ec794901d17c78024a50270940304540a733656f0d60405160405180910390a45050565b61111882826109e4565b156106d7576000828152602081815260408083206001600160a01b0385168085529252808320805460ff1916905551339285917ff6391f5c32d9c69d2a47ea670b442974b53935d1edc7fd64eb21e047a839171b9190a45050565b61117d82826109e4565b6106d75761118a816111cc565b6111958360206111de565b6040516020016111a6929190611a23565b60408051601f198184030181529082905262461bcd60e51b825261067191600401611a98565b60606104966001600160a01b03831660145b606060006111ed836002611ac1565b6111f8906002611ad8565b67ffffffffffffffff81111561121057611210611454565b6040519080825280601f01601f19166020018201604052801561123a576020820181803683370190505b509050600360fc1b8160008151811061125557611255611aeb565b60200101906001600160f81b031916908160001a905350600f60fb1b8160018151811061128457611284611aeb565b60200101906001600160f81b031916908160001a90535060006112a8846002611ac1565b6112b3906001611ad8565b90505b600181111561132b576f181899199a1a9b1b9c1cb0b131b232b360811b85600f16601081106112e7576112e7611aeb565b1a60f81b8282815181106112fd576112fd611aeb565b60200101906001600160f81b031916908160001a90535060049490941c9361132481611b01565b90506112b6565b50831561137a5760405162461bcd60e51b815260206004820181905260248201527f537472696e67733a20686578206c656e67746820696e73756666696369656e746044820152606401610671565b9392505050565b60006020828403121561139357600080fd5b5035919050565b60005b838110156113b557818101518382015260200161139d565b50506000910152565b600081518084526113d681602086016020860161139a565b601f01601f19169290920160200192915050565b60a0815260006113fd60a08301886113be565b6001600160a01b039690961660208301525060408101939093529015156060830152608090910152919050565b60006020828403121561143c57600080fd5b81356001600160e01b03198116811461137a57600080fd5b634e487b7160e01b600052604160045260246000fd5b600082601f83011261147b57600080fd5b813567ffffffffffffffff8082111561149657611496611454565b604051601f8301601f19908116603f011681019082821181831017156114be576114be611454565b816040528381528660208588010111156114d757600080fd5b836020870160208301376000602085830101528094505050505092915050565b60006020828403121561150957600080fd5b813567ffffffffffffffff81111561152057600080fd5b61152c8482850161146a565b949350505050565b60a08152600061154760a08301886113be565b828103602084015261155981886113be565b604084019690965250506001600160a01b0392909216606083015260809091015292915050565b80356001600160a01b038116811461159757600080fd5b919050565b6000602082840312156115ae57600080fd5b61137a82611580565b600080604083850312156115ca57600080fd5b823567ffffffffffffffff8111156115e157600080fd5b6115ed8582860161146a565b95602094909401359450505050565b6000806040838503121561160f57600080fd5b8235915061161f60208401611580565b90509250929050565b60c08152600061163b60c08301896113be565b828103602084015261164d81896113be565b604084019790975250506001600160a01b039390931660608401526080830191909152151560a09091015292915050565b60008060006060848603121561169357600080fd5b833567ffffffffffffffff808211156116ab57600080fd5b6116b78783880161146a565b94506116c560208701611580565b935060408601359150808211156116db57600080fd5b506116e88682870161146a565b9150509250925092565b6000806040838503121561170557600080fd5b61170e83611580565b9150602083013567ffffffffffffffff81111561172a57600080fd5b6117368582860161146a565b9150509250929050565b60008060006060848603121561175557600080fd5b833567ffffffffffffffff81111561176c57600080fd5b6117788682870161146a565b93505061178760208501611580565b9150604084013590509250925092565b600080600080608085870312156117ad57600080fd5b843567ffffffffffffffff808211156117c557600080fd5b6117d18883890161146a565b955060208701359150808211156117e757600080fd5b6117f38883890161146a565b9450604087013591508082111561180957600080fd5b506118168782880161146a565b949793965093946060013593505050565b600181811c9082168061183b57607f821691505b60208210810361185b57634e487b7160e01b600052602260045260246000fd5b50919050565b6000825161187381846020870161139a565b9190910192915050565b60408152600061189060408301856113be565b90508260208301529392505050565b60008083546118ad81611827565b600182811680156118c557600181146118da57611909565b60ff1984168752821515830287019450611909565b8760005260208060002060005b858110156119005781548a8201529084019082016118e7565b50505082870194505b50929695505050505050565b601f82111561074057600081815260208120601f850160051c8101602086101561193c5750805b601f850160051c820191505b8181101561195b57828155600101611948565b505050505050565b815167ffffffffffffffff81111561197d5761197d611454565b6119918161198b8454611827565b84611915565b602080601f8311600181146119c657600084156119ae5750858301515b600019600386901b1c1916600185901b17855561195b565b600085815260208120601f198616915b828110156119f5578886015182559484019460019091019084016119d6565b5085821015611a135787850151600019600388901b60f8161c191681555b5050505050600190811b01905550565b7f416363657373436f6e74726f6c3a206163636f756e7420000000000000000000815260008351611a5b81601785016020880161139a565b7001034b99036b4b9b9b4b733903937b6329607d1b6017918401918201528351611a8c81602884016020880161139a565b01602801949350505050565b60208152600061137a60208301846113be565b634e487b7160e01b600052601160045260246000fd5b808202811582820484141761049657610496611aab565b8082018082111561049657610496611aab565b634e487b7160e01b600052603260045260246000fd5b600081611b1057611b10611aab565b50600019019056fea26469706673582212205fd21f5ae5abce91122a02a01d5cdd01b4793e5650effd11dda73a3efd72f4c064736f6c63430008140033",
  "linkReferences": {},
  "deployedLinkReferences": {}
}