{"src/HealthRecordRegistry.sol":{"HealthRecordRegistry":{"abi":[{"inputs":[],"stateMutability":"nonpayable","type":"constructor"},{"anonymous":false,"inputs":[{"indexed":true,"internalType":"uint256","name":"tokenId","type":"uint256"},{"indexed":true,"internalType":"string","name":"patientId","type":"string"},{"indexed":true,"internalType":"address","name":"requester","type":"address"},{"indexed":false,"internalType":"uint256","name":"expiresAt","type":"uint256"}],"name":"AccessGranted","type":"event"},{"anonymous":false,"inputs":[{"indexed":true,"internalType":"uint256","name":"tokenId","type":"uint256"},{"indexed":true,"internalType":"string","name":"patientId","type":"string"},{"indexed":true,"internalType":"address","name":"requester","type":"address"}],"name":"AccessRevoked","type":"event"},{"anonymous":false,"inputs":[{"indexed":true,"internalType":"string","name":"recordId","type":"string"},{"indexed":true,"internalType":"address","name":"accessor","type":"address"},{"indexed":false,"internalType":"string","name":"action","type":"string"},{"indexed":false,"internalType":"uint256","name":"timestamp","type":"uint256"}],"name":"AuditLogged","type":"event"},{"anonymous":false,"inputs":[{"indexed":true,"internalType":"string","name":"recordId","type":"string"},{"indexed":true,"internalType":"string","name":"patientId","type":"string"},{"indexed":false,"internalType":"string","name":"ipfsCID","type":"string"},{"indexed":true,"internalType":"address","name":"uploadedBy","type":"address"},{"indexed":false,"internalType":"uint256","name":"timestamp","type":"uint256"}],"name":"RecordRegistered","type":"event"},{"anonymous":false,"inputs":[{"indexed":true,"internalType":"bytes32","name":"role","type":"bytes32"},{"indexed":true,"internalType":"bytes32","name":"previousAdminRole","type":"bytes32"},{"indexed":true,"internalType":"bytes32","name":"newAdminRole","type":"bytes32"}],"name":"RoleAdminChanged","type":"event"},{"anonymous":false,"inputs":[{"indexed":true,"internalType":"bytes32","name":"role","type":"bytes32"},{"indexed":true,"internalType":"address","name":"account","type":"address"},{"indexed":true,"internalType":"address","name":"sender","type":"address"}],"name":"RoleGranted","type":"event"},{"anonymous":false,"inputs":[{"indexed":true,"internalType":"bytes32","name":"role","type":"bytes32"},{"indexed":true,"internalType":"address","name":"account","type":"address"},{"indexed":true,"internalType":"address","name":"sender","type":"address"}],"name":"RoleRevoked","type":"event"},{"inputs":[],"name":"DEFAULT_ADMIN_ROLE","outputs":[{"internalType":"bytes32","name":"","type":"bytes32"}],"stateMutability":"view","type":"function"},{"inputs":[],"name":"HOSPITAL_ROLE","outputs":[{"internalType":"bytes32","name":"","type":"bytes32"}],"stateMutability":"view","type":"function"},{"inputs":[],"name":"INSURER_ROLE","outputs":[{"internalType":"bytes32","name":"","type":"bytes32"}],"stateMutability":"view","type":"function"},{"inputs":[{"internalType":"uint256","name":"","type":"uint256"}],"name":"accessTokens","outputs":[{"internalType":"string","name":"patientId","type":"string"},{"internalType":"address","name":"requester","type":"address"},{"internalType":"uint256","name":"expiresAt","type":"uint256"},{"internalType":"bool","name":"active","type":"bool"},{"internalType":"uint256","name":"grantedAt","type":"uint256"}],"stateMutability":"view","type":"function"},{"inputs":[{"internalType":"address","name":"hospital","type":"address"}],"name":"addHospital","outputs":[],"stateMutability":"nonpayable","type":"function"},{"inputs":[{"internalType":"address","name":"insurer","type":"address"}],"name":"addInsurer","outputs":[],"stateMutability":"nonpayable","type":"function"},{"inputs":[{"internalType":"address","name":"requester","type":"address"},{"internalType":"string","name":"patientId","type":"string"}],"name":"checkAccess","outputs":[{"internalType":"bool","name":"","type":"bool"}],"stateMutability":"view","type":"function"},{"inputs":[{"internalType":"uint256","name":"tokenId","type":"uint256"}],"name":"getAccessToken","outputs":[{"internalType":"string","name":"patientId","type":"string"},{"internalType":"address","name":"requester","type":"address"},{"internalType":"uint256","name":"expiresAt","type":"uint256"},{"internalType":"bool","name":"active","type":"bool"},{"internalType":"uint256","name":"grantedAt","type":"uint256"}],"stateMutability":"view","type":"function"},{"inputs":[{"internalType":"string","name":"recordId","type":"string"}],"name":"getRecord","outputs":[{"internalType":"string","name":"patientId","type":"string"},{"internalType":"string","name":"ipfsCID","type":"string"},{"internalType":"bytes32","name":"metadataHash","type":"bytes32"},{"internalType":"address","name":"uploadedBy","type":"address"},{"internalType":"uint256","name":"timestamp","type":"uint256"}],"stateMutability":"view","type":"function"},{"inputs":[{"internalType":"bytes32","name":"role","type":"bytes32"}],"name":"getRoleAdmin","outputs":[{"internalType":"bytes32","name":"","type":"bytes32"}],"stateMutability":"view","type":"function"},{"inputs":[{"internalType":"string","name":"patientId","type":"string"},{"internalType":"address","name":"requester","type":"address"},{"internalType":"uint256","name":"expiresAt","type":"uint256"}],"name":"grantAccess","outputs":[{"internalType":"uint256","name":"","type":"uint256"}],"stateMutability":"nonpayable","type":"function"},{"inputs":[{"internalType":"bytes32","name":"role","type":"bytes32"},{"internalType":"address","name":"account","type":"address"}],"name":"grantRole","outputs":[],"stateMutability":"nonpayable","type":"function"},{"inputs":[{"internalType":"address","name":"","type":"address"},{"internalType":"string","name":"","type":"string"}],"name":"hasAccess","outputs":[{"internalType":"bool","name":"","type":"bool"}],"stateMutability":"view","type":"function"},{"inputs":[{"internalType":"bytes32","name":"role","type":"bytes32"},{"internalType":"address","name":"account","type":"address"}],"name":"hasRole","outputs":[{"internalType":"bool","name":"","type":"bool"}],"stateMutability":"view","type":"function"},{"inputs":[{"internalType":"string","name":"recordId","type":"string"},{"internalType":"address","name":"accessor","type":"address"},{"internalType":"string","name":"action","type":"string"}],"name":"logAccess","outputs":[],"stateMutability":"nonpayable","type":"function"},{"inputs":[{"internalType":"string","name":"","type":"string"},{"internalType":"uint256","name":"","type":"uint256"}],"name":"patientAccessTokens","outputs":[{"internalType":"uint256","name":"","type":"uint256"}],"stateMutability":"view","type":"function"},{"inputs":[{"internalType":"string","name":"","type":"string"}],"name":"records","outputs":[{"internalType":"string","name":"patientId","type":"string"},{"internalType":"string","name":"ipfsCID","type":"string"},{"internalType":"bytes32","name":"metadataHash","type":"bytes32"},{"internalType":"address","name":"uploadedBy","type":"address"},{"internalType":"uint256","name":"timestamp","type":"uint256"},{"internalType":"bool","name":"exists","type":"bool"}],"stateMutability":"view","type":"function"},{"inputs":[{"internalType":"string","name":"recordId","type":"string"},{"internalType":"string","name":"patientId","type":"string"},{"internalType":"string","name":"ipfsCID","type":"string"},{"internalType":"bytes32","name":"metadataHash","type":"bytes32"}],"name":"registerDocument","outputs":[],"stateMutability":"nonpayable","type":"function"},{"inputs":[{"internalType":"bytes32","name":"role","type":"bytes32"},{"internalType":"address","name":"account","type":"address"}],"name":"renounceRole","outputs":[],"stateMutability":"nonpayable","type":"function"},{"inputs":[{"internalType":"uint256","name":"tokenId","type":"uint256"}],"name":"revokeAccess","outputs":[],"stateMutability":"nonpayable","type":"function"},{"inputs":[{"internalType":"bytes32","name":"role","type":"bytes32"},{"internalType":"address","name":"account","type":"address"}],"name":"revokeRole","outputs":[],"stateMutability":"nonpayable","type":"function"},{"inputs":[{"internalType":"bytes4","name":"interfaceId","type":"bytes4"}],"name":"supportsInterface","outputs":[{"internalType":"bool","name":"","type":"bool"}],"stateMutability":"view","type":"function"}],"evm":{"bytecode":{"linkReferences":{},"object":"608060405234801561001057600080fd5b5061001c600033610021565b6100c0565b6000828152602081815260408083206001600160a01b038516845290915290205460ff166100bc576000828152602081815260408083206001600160a01b03851684529091529020805460ff1916600117905561007b3390565b6001600160a01b0316816001600160a01b0316837f2f8788117e7eff1d82e926ec794901d17c78024a50270940304540a733656f0d60405160405180910390a45b5050565b611b4e806100cf6000396000f3fe608060405234801561001057600080fd5b50600436106101415760003560e01c806391d14854116100b8578063c1b5fb061161007c578063c1b5fb0614610318578063d547741f1461032b578063e1b97d691461033e578063e5492e2b14610351578063f11f708414610364578063f6ba66781461037757600080fd5b806391d1485414610298578063991acf6e146102ab578063a217fddf146102be578063a5657a91146102c6578063a8ccb291146102d957600080fd5b8063248a9ca31161010a578063248a9ca31461020457806325db80fc146102275780632f2ff15d1461023a57806336568abe1461024d578063541e771d146102605780637af6ac301461028557600080fd5b8062af701f1461014657806301ffc9a714610173578063056c99891461019657806311dd8845146101cb5780631b470bc7146101ef575b600080fd5b610159610154366004611381565b61039e565b60405161016a9594939291906113ea565b60405180910390f35b61018661018136600461142a565b610465565b604051901515815260200161016a565b6101bd7feb0a07781e3ee843c0d85f7381c2e1a1e1a6ea86bcdcd944ef649d46e7dcd97281565b60405190815260200161016a565b6101de6101d93660046114f7565b61049c565b60405161016a959493929190611534565b6102026101fd36600461159c565b6106a2565b005b6101bd610212366004611381565b60009081526020819052604090206001015490565b6101bd6102353660046115b7565b6106db565b6102026102483660046115fc565b61071b565b61020261025b3660046115fc565b610745565b61027361026e3660046114f7565b6107bf565b60405161016a96959493929190611628565b61020261029336600461167e565b61091c565b6101866102a63660046115fc565b6109e4565b6101596102b9366004611381565b610a0d565b6101bd600081565b6101866102d43660046116f2565b610b30565b6101866102e73660046116f2565b6006602090815260009283526040909220815180830184018051928152908401929093019190912091525460ff1681565b61020261032636600461159c565b610b71565b6102026103393660046115fc565b610ba6565b61020261034c366004611381565b610bcb565b6101bd61035f366004611740565b610ccd565b610202610372366004611797565b610eb7565b6101bd7fc8f5b4140cca307cd927e59cbeea8291bffeee228fc677f0fa059aef7b4dd8d581565b6004602052600090815260409020805481906103b990611827565b80601f01602080910402602001604051908101604052809291908181526020018280546103e590611827565b80156104325780601f1061040757610100808354040283529160200191610432565b820191906000526020600020905b81548152906001019060200180831161041557829003601f168201915b50505060018401546002850154600386015460049096015494956001600160a01b039092169490935060ff909116915085565b60006001600160e01b03198216637965db0b60e01b148061049657506301ffc9a760e01b6001600160e01b03198316145b92915050565b6060806000806000806003876040516104b59190611861565b90815260200160405180910390206040518060c00160405290816000820180546104de90611827565b80601f016020809104026020016040519081016040528092919081815260200182805461050a90611827565b80156105575780601f1061052c57610100808354040283529160200191610557565b820191906000526020600020905b81548152906001019060200180831161053a57829003601f168201915b5050505050815260200160018201805461057090611827565b80601f016020809104026020016040519081016040528092919081815260200182805461059c90611827565b80156105e95780601f106105be576101008083540402835291602001916105e9565b820191906000526020600020905b8154815290600101906020018083116105cc57829003601f168201915b50505091835250506002820154602082015260038201546001600160a01b031660408201526004820154606082015260059091015460ff16151560809091015260a081015190915061067a5760405162461bcd60e51b8152602060048201526015602482015274149958dbdc9908191bd95cc81b9bdd08195e1a5cdd605a1b60448201526064015b60405180910390fd5b8051602082015160408301516060840151608090940151929a91995097509195509350915050565b60006106ad8161107d565b6106d77fc8f5b4140cca307cd927e59cbeea8291bffeee228fc677f0fa059aef7b4dd8d58361071b565b5050565b8151602081840181018051600582529282019185019190912091905280548290811061070657600080fd5b90600052602060002001600091509150505481565b6000828152602081905260409020600101546107368161107d565b610740838361108a565b505050565b6001600160a01b03811633146107b55760405162461bcd60e51b815260206004820152602f60248201527f416363657373436f6e74726f6c3a2063616e206f6e6c792072656e6f756e636560448201526e103937b632b9903337b91039b2b63360891b6064820152608401610671565b6106d7828261110e565b80516020818301810180516003825292820191909301209152805481906107e590611827565b80601f016020809104026020016040519081016040528092919081815260200182805461081190611827565b801561085e5780601f106108335761010080835404028352916020019161085e565b820191906000526020600020905b81548152906001019060200180831161084157829003601f168201915b50505050509080600101805461087390611827565b80601f016020809104026020016040519081016040528092919081815260200182805461089f90611827565b80156108ec5780601f106108c1576101008083540402835291602001916108ec565b820191906000526020600020905b8154815290600101906020018083116108cf57829003601f168201915b50505050600283015460038401546004850154600590950154939491936001600160a01b03909116925060ff1686565b60038360405161092c9190611861565b9081526040519081900360200190206005015460ff166109865760405162461bcd60e51b8152602060048201526015602482015274149958dbdc9908191bd95cc81b9bdd08195e1a5cdd605a1b6044820152606401610671565b816001600160a01b03168360405161099e9190611861565b60405180910390207fe4127093a20c11d148206b5b5285e41668b5f5bb01a28069be7352458fb912a183426040516109d792919061187d565b60405180910390a3505050565b6000918252602082815260408084206001600160a01b0393909316845291905290205460ff1690565b60606000806000806000600460008881526020019081526020016000206040518060a0016040529081600082018054610a4590611827565b80601f0160208091040260200160405190810160405280929190818152602001828054610a7190611827565b8015610abe5780601f10610a9357610100808354040283529160200191610abe565b820191906000526020600020905b815481529060010190602001808311610aa157829003601f168201915b505050918352505060018201546001600160a01b03166020808301919091526002830154604080840191909152600384015460ff16151560608085019190915260049094015460809384015284519185015190850151938501519490920151909b919a50919850919650945092505050565b6001600160a01b0382166000908152600660205260408082209051610b56908490611861565b9081526040519081900360200190205460ff16905092915050565b6000610b7c8161107d565b6106d77feb0a07781e3ee843c0d85f7381c2e1a1e1a6ea86bcdcd944ef649d46e7dcd9728361071b565b600082815260208190526040902060010154610bc18161107d565b610740838361110e565b6000818152600460205260409020600381015460ff16610c265760405162461bcd60e51b8152602060048201526016602482015275546f6b656e20616c726561647920696e61637469766560501b6044820152606401610671565b60038101805460ff1916905560018101546001600160a01b03166000908152600660205260408082209051610c5c90849061189f565b908152604051908190036020018120805492151560ff199093169290921790915560018201546001600160a01b031690610c9790839061189f565b6040519081900381209084907fd961890b74bbdbb62df087b1c5f5d0b7e4020004685ad37e50aa9190e949681d90600090a45050565b6000428211610d1e5760405162461bcd60e51b815260206004820152601760248201527f496e76616c69642065787069726174696f6e2074696d650000000000000000006044820152606401610671565b6000610d2960025490565b9050610d39600280546001019055565b6040805160a0810182528681526001600160a01b03861660208083019190915281830186905260016060830152426080830152600084815260049091529190912081518190610d889082611963565b5060208201516001820180546001600160a01b0319166001600160a01b039092169190911790556040808301516002830155606083015160038301805460ff191691151591909117905560809092015160049091015551600590610ded908790611861565b908152604080516020928190038301812080546001808201835560009283528583209091018690556001600160a01b038916825260069094529190912090610e36908890611861565b908152604051908190036020018120805492151560ff19909316929092179091556001600160a01b03851690610e6d908790611861565b6040518091039020827fbe08b5c88dbbb9b59f5c0a92338b55e5269fceccc156e9ec693bb529ea8b063986604051610ea791815260200190565b60405180910390a4949350505050565b7fc8f5b4140cca307cd927e59cbeea8291bffeee228fc677f0fa059aef7b4dd8d5610ee18161107d565b600385604051610ef19190611861565b9081526040519081900360200190206005015460ff1615610f4c5760405162461bcd60e51b81526020600482015260156024820152745265636f726420616c72656164792065786973747360581b6044820152606401610671565b6040805160c08101825285815260208101859052808201849052336060820152426080820152600160a08201529051600390610f89908890611861565b90815260405190819003602001902081518190610fa69082611963565b5060208201516001820190610fbb9082611963565b50604082810151600283015560608301516003830180546001600160a01b0319166001600160a01b039092169190911790556080830151600483015560a0909201516005909101805460ff191691151591909117905551339061101f908690611861565b6040518091039020866040516110359190611861565b60405180910390207f874707e2d1da52416c11042b7804f8fde430f816a6e247ca8cf1479b55fb91dd864260405161106e92919061187d565b60405180910390a45050505050565b6110878133611173565b50565b61109482826109e4565b6106d7576000828152602081815260408083206001600160a01b03851684529091529020805460ff191660011790556110ca3390565b6001600160a01b0316816001600160a01b0316837f2f8788117e7eff1d82e926ec794901d17c78024a50270940304540a733656f0d60405160405180910390a45050565b61111882826109e4565b156106d7576000828152602081815260408083206001600160a01b0385168085529252808320805460ff1916905551339285917ff6391f5c32d9c69d2a47ea670b442974b53935d1edc7fd64eb21e047a839171b9190a45050565b61117d82826109e4565b6106d75761118a816111cc565b6111958360206111de565b6040516020016111a6929190611a23565b60408051601f198184030181529082905262461bcd60e51b825261067191600401611a98565b60606104966001600160a01b03831660145b606060006111ed836002611ac1565b6111f8906002611ad8565b67ffffffffffffffff81111561121057611210611454565b6040519080825280601f01601f19166020018201604052801561123a576020820181803683370190505b509050600360fc1b8160008151811061125557611255611aeb565b60200101906001600160f81b031916908160001a905350600f60fb1b8160018151811061128457611284611aeb565b60200101906001600160f81b031916908160001a90535060006112a8846002611ac1565b6112b3906001611ad8565b90505b600181111561132b576f181899199a1a9b1b9c1cb0b131b232b360811b85600f16601081106112e7576112e7611aeb565b1a60f81b8282815181106112fd576112fd611aeb565b60200101906001600160f81b031916908160001a90535060049490941c9361132481611b01565b90506112b6565b50831561137a5760405162461bcd60e51b815260206004820181905260248201527f537472696e67733a20686578206c656e67746820696e73756666696369656e746044820152606401610671565b9392505050565b60006020828403121561139357600080fd5b5035919050565b60005b838110156113b557818101518382015260200161139d565b50506000910152565b600081518084526113d681602086016020860161139a565b601f01601f19169290920160200192915050565b60a0815260006113fd60a08301886113be565b6001600160a01b039690961660208301525060408101939093529015156060830152608090910152919050565b60006020828403121561143c57600080fd5b81356001600160e01b03198116811461137a57600080fd5b634e487b7160e01b600052604160045260246000fd5b600082601f83011261147b57600080fd5b813567ffffffffffffffff8082111561149657611496611454565b604051601f8301601f19908116603f011681019082821181831017156114be576114be611454565b816040528381528660208588010111156114d757600080fd5b836020870160208301376000602085830101528094505050505092915050565b60006020828403121561150957600080fd5b813567ffffffffffffffff81111561152057600080fd5b61152c8482850161146a565b949350505050565b60a08152600061154760a08301886113be565b828103602084015261155981886113be565b604084019690965250506001600160a01b0392909216606083015260809091015292915050565b80356001600160a01b038116811461159757600080fd5b919050565b6000602082840312156115ae57600080fd5b61137a82611580565b600080604083850312156115ca57600080fd5b823567ffffffffffffffff8111156115e157600080fd5b6115ed8582860161146a565b95602094909401359450505050565b6000806040838503121561160f57600080fd5b8235915061161f60208401611580565b90509250929050565b60c08152600061163b60c08301896113be565b828103602084015261164d81896113be565b604084019790975250506001600160a01b039390931660608401526080830191909152151560a09091015292915050565b60008060006060848603121561169357600080fd5b833567ffffffffffffffff808211156116ab57600080fd5b6116b78783880161146a565b94506116c560208701611580565b935060408601359150808211156116db57600080fd5b506116e88682870161146a565b9150509250925092565b6000806040838503121561170557600080fd5b61170e83611580565b9150602083013567ffffffffffffffff81111561172a57600080fd5b6117368582860161146a565b9150509250929050565b60008060006060848603121561175557600080fd5b833567ffffffffffffffff81111561176c57600080fd5b6117788682870161146a565b93505061178760208501611580565b9150604084013590509250925092565b600080600080608085870312156117ad57600080fd5b843567ffffffffffffffff808211156117c557600080fd5b6117d18883890161146a565b955060208701359150808211156117e757600080fd5b6117f38883890161146a565b9450604087013591508082111561180957600080fd5b506118168782880161146a565b949793965093946060013593505050565b600181811c9082168061183b57607f821691505b60208210810361185b57634e487b7160e01b600052602260045260246000fd5b50919050565b6000825161187381846020870161139a565b9190910192915050565b60408152600061189060408301856113be565b90508260208301529392505050565b60008083546118ad81611827565b600182811680156118c557600181146118da57611909565b60ff1984168752821515830287019450611909565b8760005260208060002060005b858110156119005781548a8201529084019082016118e7565b50505082870194505b50929695505050505050565b601f82111561074057600081815260208120601f850160051c8101602086101561193c5750805b601f850160051c820191505b8181101561195b57828155600101611948565b505050505050565b815167ffffffffffffffff81111561197d5761197d611454565b6119918161198b8454611827565b84611915565b602080601f8311600181146119c657600084156119ae5750858301515b600019600386901b1c1916600185901b17855561195b565b600085815260208120601f198616915b828110156119f5578886015182559484019460019091019084016119d6565b5085821015611a135787850151600019600388901b60f8161c191681555b5050505050600190811b01905550565b7f416363657373436f6e74726f6c3a206163636f756e7420000000000000000000815260008351611a5b81601785016020880161139a565b7001034b99036b4b9b9b4b733903937b6329607d1b6017918401918201528351611a8c81602884016020880161139a565b01602801949350505050565b60208152600061137a60208301846113be565b634e487b7160e01b600052601160045260246000fd5b808202811582820484141761049657610496611aab565b8082018082111561049657610496611aab565b634e487b7160e01b600052603260045260246000fd5b600081611b1057611b10611aab565b50600019019056fea26469706673582212205fd21f5ae5abce91122a02a01d5cdd01b4793e5650effd11dda73a3efd72f4c064736f6c63430008140033","opcodes":"PUSH1 0x80 PUSH1 0x40 MSTORE CALLVALUE DUP1 ISZERO PUSH2 0x10 JUMPI PUSH1 0x0 DUP1 REVERT JUMPDEST POP PUSH2 0x1C PUSH1 0x0 CALLER PUSH2 0x21 JUMP JUMPDEST PUSH2 0xC0 JUMP JUMPDEST PUSH1 0x0 DUP3 DUP2 MSTORE PUSH1 0x20 DUP2 DUP2 MSTORE PUSH1 0x40 DUP1 DUP4 KECCAK256 PUSH1 0x1 PUSH1 0x1 PUSH1 0xA0 SHL SUB DUP6 AND DUP5 MSTORE SWAP1 SWAP2 MSTORE SWAP1 KECCAK256 SLOAD PUSH1 0xFF AND PUSH2 0xBC JUMPI PUSH1 0x0 DUP3 DUP2 MSTORE PUSH1 0x20 DUP2 DUP2 MSTORE PUSH1 0x40 DUP1 DUP4 KECCAK256 PUSH1 0x1 PUSH1 0x1 PUSH1 0xA0 SHL SUB DUP6 AND DUP5 MSTORE SWAP1 SWAP2 MSTORE SWAP1 KECCAK256 DUP1 SLOAD PUSH1 0xFF NOT AND PUSH1 0x1 OR SWAP1 SSTORE PUSH2 0x7B CALLER SWAP1 JUMP JUMPDEST PUSH1 0x1 PUSH1 0x1 PUSH1 0xA0 SHL SUB AND DUP2 PUSH1 0x1 PUSH1 0x1 PUSH1 0xA0 SHL SUB AND DUP4 PUSH32 0x2F8788117E7EFF1D82E926EC794901D17C78024A50270940304540A733656F0D PUSH1 0x40 MLOAD PUSH1 0x40 MLOAD DUP1 SWAP2 SUB SWAP1 LOG4 JUMPDEST POP POP JUMP JUMPDEST PUSH2 0x1B4E DUP1 PUSH2 0xCF PUSH1 0x0 CODECOPY PUSH1 0x0 RETURN INVALID PUSH1 0x80 PUSH1 0x40 MSTORE CALLVALUE DUP1 ISZERO PUSH2 0x10 JUMPI PUSH1 0x0 DUP1 REVERT JUMPDEST POP PUSH1 0x4 CALLDATASIZE LT PUSH2 0x141 JUMPI PUSH1 0x0 CALLDATALOAD PUSH1 0xE0 SHR DUP1 PUSH4 0x91D14854 GT PUSH2 0xB8 JUMPI DUP1 PUSH4 0xC1B5FB06 GT PUSH2 0x7C JUMPI DUP1 PUSH4 0xC1B5FB06 EQ PUSH2 0x318 JUMPI DUP1 PUSH4 0xD547741F EQ PUSH2 0x32B JUMPI DUP1 PUSH4 0xE1B97D69 EQ PUSH2 0x33E JUMPI DUP1 PUSH4 0xE5492E2B EQ PUSH2 0x351 JUMPI DUP1 PUSH4 0xF11F7084 EQ PUSH2 0x364 JUMPI DUP1 PUSH4 0xF6BA6678 EQ PUSH2 0x377 JUMPI PUSH1 0x0 DUP1 REVERT JUMPDEST DUP1 PUSH4 0x91D14854 EQ PUSH2 0x298 JUMPI DUP1 PUSH4 0x991ACF6E EQ PUSH2 0x2AB JUMPI DUP1 PUSH4 0xA217FDDF EQ PUSH2 0x2BE JUMPI DUP1 PUSH4 0xA5657A91 EQ PUSH2 0x2C6 JUMPI DUP1 PUSH4 0xA8CCB291 EQ PUSH2 0x2D9 JUMPI PUSH1 0x0 DUP1 REVERT JUMPDEST DUP1 PUSH4 0x248A9CA3 GT PUSH2 0x10A JUMPI DUP1 PUSH4 0x248A9CA3 EQ PUSH2 0x204 JUMPI DUP1 PUSH4 0x25DB80FC EQ PUSH2 0x227 JUMPI DUP1 PUSH4 0x2F2FF15D EQ PUSH2 0x23A JUMPI DUP1 PUSH4 0x36568ABE EQ PUSH2 0x24D JUMPI DUP1 PUSH4 0x541E771D EQ PUSH2 0x260 JUMPI DUP1 PUSH4 0x7AF6AC30 EQ PUSH2 0x285 JUMPI PUSH1 0x0 DUP1 REVERT JUMPDEST DUP1 PUSH3 0xAF701F EQ PUSH2 0x146 JUMPI DUP1 PUSH4 0x1FFC9A7 EQ PUSH2 0x173 JUMPI DUP1 PUSH4 0x56C9989 EQ PUSH2 0x196 JUMPI DUP1 PUSH4 0x11DD8845 EQ PUSH2 0x1CB JUMPI DUP1 PUSH4 0x1B470BC7 EQ PUSH2 0x1EF JUMPI JUMPDEST PUSH1 0x0 DUP1 REVERT JUMPDEST PUSH2 0x159 PUSH2 0x154 CALLDATASIZE PUSH1 0x4 PUSH2 0x1381 JUMP JUMPDEST PUSH2 0x39E JUMP JUMPDEST PUSH1 0x40 MLOAD PUSH2 0x16A SWAP6 SWAP5 SWAP4 SWAP3 SWAP2 SWAP1 PUSH2 0x13EA JUMP JUMPDEST PUSH1 0x40 MLOAD DUP1 SWAP2 SUB SWAP1 RETURN JUMPDEST PUSH2 0x186 PUSH2 0x181 CALLDATASIZE PUSH1 0x4 PUSH2 0x142A JUMP JUMPDEST PUSH2 0x465 JUMP JUMPDEST PUSH1 0x40 MLOAD SWAP1 ISZERO ISZERO DUP2 MSTORE PUSH1 0x20 ADD PUSH2 0x16A JUMP JUMPDEST PUSH2 0x1BD PUSH32 0xEB0A07781E3EE843C0D85F7381C2E1A1E1A6EA86BCDCD944EF649D46E7DCD972 DUP2 JUMP JUMPDEST PUSH1 0x40 MLOAD SWAP1 DUP2 MSTORE PUSH1 0x20 ADD PUSH2 0x16A JUMP JUMPDEST PUSH2 0x1DE PUSH2 0x1D9 CALLDATASIZE PUSH1 0x4 PUSH2 0x14F7 JUMP JUMPDEST PUSH2 0x49C JUMP JUMPDEST PUSH1 0x40 MLOAD PUSH2 0x16A SWAP6 SWAP5 SWAP4 SWAP3 SWAP2 SWAP1 PUSH2 0x1534 JUMP JUMPDEST PUSH2 0x202 PUSH2 0x1FD CALLDATASIZE PUSH1 0x4 PUSH2 0x159C JUMP JUMPDEST PUSH2 0x6A2 JUMP JUMPDEST STOP JUMPDEST PUSH2 0x1BD PUSH2 0x212 CALLDATASIZE PUSH1 0x4 PUSH2 0x1381 JUMP JUMPDEST PUSH1 0x0 SWAP1 DUP2 MSTORE PUSH1 0x20 DUP2 SWAP1 MSTORE PUSH1 0x40 SWAP1 KECCAK256 PUSH1 0x1 ADD SLOAD SWAP1 JUMP JUMPDEST PUSH2 0x1BD PUSH2 0x235 CALLDATASIZE PUSH1 0x4 PUSH2 0x15B7 JUMP JUMPDEST PUSH2 0x6DB JUMP JUMPDEST PUSH2 0x202 PUSH2 0x248 CALLDATASIZE PUSH1 0x4 PUSH2 0x15FC JUMP JUMPDEST PUSH2 0x71B JUMP JUMPDEST PUSH2 0x202 PUSH2 0x25B CALLDATASIZE PUSH1 0x4 PUSH2 0x15FC JUMP JUMPDEST PUSH2 0x745 JUMP JUMPDEST PUSH2 0x273 PUSH2 0x26E CALLDATASIZE PUSH1 0x4 PUSH2 0x14F7 JUMP JUMPDEST PUSH2 0x7BF JUMP JUMPDEST PUSH1 0x40 MLOAD PUSH2 0x16A SWAP7 SWAP6 SWAP5 SWAP4 SWAP3 SWAP2 SWAP1 PUSH2 0x1628 JUMP JUMPDEST PUSH2 0x202 PUSH2 0x293 CALLDATASIZE PUSH1 0x4 PUSH2 0x167E JUMP JUMPDEST PUSH2 0x91C JUMP JUMPDEST PUSH2 0x186 PUSH2 0x2A6 CALLDATASIZE PUSH1 0x4 PUSH2 0x15FC JUMP JUMPDEST PUSH2 0x9E4 JUMP JUMPDEST PUSH2 0x159 PUSH2 0x2B9 CALLDATASIZE PUSH1 0x4 PUSH2 0x1381 JUMP JUMPDEST PUSH2 0xA0D JUMP JUMPDEST PUSH2 0x1BD PUSH1 0x0 DUP2 JUMP JUMPDEST PUSH2 0x186 PUSH2 0x2D4 CALLDATASIZE PUSH1 0x4 PUSH2 0x16F2 JUMP JUMPDEST PUSH2 0xB30 JUMP JUMPDEST PUSH2 0x186 PUSH2 0x2E7 CALLDATASIZE PUSH1 0x4 PUSH2 0x16F2 JUMP JUMPDEST PUSH1 0x6 PUSH1 0x20 SWAP1 DUP2 MSTORE PUSH1 0x0 SWAP3 DUP4 MSTORE PUSH1 0x40 SWAP1 SWAP3 KECCAK256 DUP2 MLOAD DUP1 DUP4 ADD DUP5 ADD DUP1 MLOAD SWAP3 DUP2 MSTORE SWAP1 DUP5 ADD SWAP3 SWAP1 SWAP4 ADD SWAP2 SWAP1 SWAP2 KECCAK256 SWAP2 MSTORE SLOAD PUSH1 0xFF AND DUP2 JUMP JUMPDEST PUSH2 0x202 PUSH2 0x326 CALLDATASIZE PUSH1 0x4 PUSH2 0x159C JUMP JUMPDEST PUSH2 0xB71 JUMP JUMPDEST PUSH2 0x202 PUSH2 0x339 CALLDATASIZE PUSH1 0x4 PUSH2 0x15FC JUMP JUMPDEST PUSH2 0xBA6 JUMP JUMPDEST PUSH2 0x202 PUSH2 0x34C CALLDATASIZE PUSH1 0x4 PUSH2 0x1381 JUMP JUMPDEST PUSH2 0xBCB JUMP JUMPDEST PUSH2 0x1BD PUSH2 0x35F CALLDATASIZE PUSH1 0x4 PUSH2 0x1740 JUMP JUMPDEST PUSH2 0xCCD JUMP JUMPDEST PUSH2 0x202 PUSH2 0x372 CALLDATASIZE PUSH1 0x4 PUSH2 0x1797 JUMP JUMPDEST PUSH2 0xEB7 JUMP JUMPDEST PUSH2 0x1BD PUSH32 0xC8F5B4140CCA307CD927E59CBEEA8291BFFEEE228FC677F0FA059AEF7B4DD8D5 DUP2 JUMP JUMPDEST PUSH1 0x4 PUSH1 0x20 MSTORE PUSH1 0x0 SWAP1 DUP2 MSTORE PUSH1 0x40 SWAP1 KECCAK256 DUP1 SLOAD DUP2 SWAP1 PUSH2 0x3B9 SWAP1 PUSH2 0x1827 JUMP JUMPDEST DUP1 PUSH1 0x1F ADD PUSH1 0x20 DUP1 SWAP2 DIV MUL PUSH1 0x20 ADD PUSH1 0x40 MLOAD SWAP1 DUP2 ADD PUSH1 0x40 MSTORE DUP1 SWAP3 SWAP2 SWAP1 DUP2 DUP2 MSTORE PUSH1 0x20 ADD DUP3 DUP1 SLOAD PUSH2 0x3E5 SWAP1 PUSH2 0x1827 JUMP JUMPDEST DUP1 ISZERO PUSH2 0x432 JUMPI DUP1 PUSH1 0x1F LT PUSH2 0x407 JUMPI PUSH2 0x100 DUP1 DUP4 SLOAD DIV MUL DUP4 MSTORE SWAP2 PUSH1 0x20 ADD SWAP2 PUSH2 0x432 JUMP JUMPDEST DUP3 ADD SWAP2 SWAP1 PUSH1 0x0 MSTORE PUSH1 0x20 PUSH1 0x0 KECCAK256 SWAP1 JUMPDEST DUP2 SLOAD DUP2 MSTORE SWAP1 PUSH1 0x1 ADD SWAP1 PUSH1 0x20 ADD DUP1 DUP4 GT PUSH2 0x415 JUMPI DUP3 SWAP1 SUB PUSH1 0x1F AND DUP3 ADD SWAP2 JUMPDEST POP POP POP PUSH1 0x1 DUP5 ADD SLOAD PUSH1 0x2 DUP6 ADD SLOAD PUSH1 0x3 DUP7 ADD SLOAD PUSH1 0x4 SWAP1 SWAP7 ADD SLOAD SWAP5 SWAP6 PUSH1 0x1 PUSH1 0x1 PUSH1 0xA0 SHL SUB SWAP1 SWAP3 AND SWAP5 SWAP1 SWAP4 POP PUSH1 0xFF SWAP1 SWAP2 AND SWAP2 POP DUP6 JUMP JUMPDEST PUSH1 0x0 PUSH1 0x1 PUSH1 0x1 PUSH1 0xE0 SHL SUB NOT DUP3 AND PUSH4 0x7965DB0B PUSH1 0xE0 SHL EQ DUP1 PUSH2 0x496 JUMPI POP PUSH4 0x1FFC9A7 PUSH1 0xE0 SHL PUSH1 0x1 PUSH1 0x1 PUSH1 0xE0 SHL SUB NOT DUP4 AND EQ JUMPDEST SWAP3 SWAP2 POP POP JUMP JUMPDEST PUSH1 0x60 DUP1 PUSH1 0x0 DUP1 PUSH1 0x0 DUP1 PUSH1 0x3 DUP8 PUSH1 0x40 MLOAD PUSH2 0x4B5 SWAP2 SWAP1 PUSH2 0x1861 JUMP JUMPDEST SWAP1 DUP2 MSTORE PUSH1 0x20 ADD PUSH1 0x40 MLOAD DUP1 SWAP2 SUB SWAP1 KECCAK256 PUSH1 0x40 MLOAD DUP1 PUSH1 0xC0 ADD PUSH1 0x40 MSTORE SWAP1 DUP2 PUSH1 0x0 DUP3 ADD DUP1 SLOAD PUSH2 0x4DE SWAP1 PUSH2 0x1827 JUMP JUMPDEST DUP1 PUSH1 0x1F ADD PUSH1 0x20 DUP1 SWAP2 DIV MUL PUSH1 0x20 ADD PUSH1 0x40 MLOAD SWAP1 DUP2 ADD PUSH1 0x40 MSTORE DUP1 SWAP3 SWAP2 SWAP1 DUP2 DUP2 MSTORE PUSH1 0x20 ADD DUP3 DUP1 SLOAD PUSH2 0x50A SWAP1 PUSH2 0x1827 JUMP JUMPDEST DUP1 ISZERO PUSH2 0x557 JUMPI DUP1 PUSH1 0x1F LT PUSH2 0x52C JUMPI PUSH2 0x100 DUP1 DUP4 SLOAD DIV MUL DUP4 MSTORE SWAP2 PUSH1 0x20 ADD SWAP2 PUSH2 0x557 JUMP JUMPDEST DUP3 ADD SWAP2 SWAP1 PUSH1 0x0 MSTORE PUSH1 0x20 PUSH1 0x0 KECCAK256 SWAP1 JUMPDEST DUP2 SLOAD DUP2 MSTORE SWAP1 PUSH1 0x1 ADD SWAP1 PUSH1 0x20 ADD DUP1 DUP4 GT PUSH2 0x53A JUMPI DUP3 SWAP1 SUB PUSH1 0x1F AND DUP3 ADD SWAP2 JUMPDEST POP POP POP POP POP DUP2 MSTORE PUSH1 0x20 ADD PUSH1 0x1 DUP3 ADD DUP1 SLOAD PUSH2 0x570 SWAP1 PUSH2 0x1827 JUMP JUMPDEST DUP1 PUSH1 0x1F ADD PUSH1 0x20 DUP1 SWAP2 DIV MUL PUSH1 0x20 ADD PUSH1 0x40 MLOAD SWAP1 DUP2 ADD PUSH1 0x40 MSTORE DUP1 SWAP3 SWAP2 SWAP1 DUP2 DUP2 MSTORE PUSH1 0x20 ADD DUP3 DUP1 SLOAD PUSH2 0x59C SWAP1 PUSH2 0x1827 JUMP JUMPDEST DUP1 ISZERO PUSH2 0x5E9 JUMPI DUP1 PUSH1 0x1F LT PUSH2 0x5BE JUMPI PUSH2 0x100 DUP1 DUP4 SLOAD DIV MUL DUP4 MSTORE SWAP2 PUSH1 0x20 ADD SWAP2 PUSH2 0x5E9 JUMP JUMPDEST DUP3 ADD SWAP2 SWAP1 PUSH1 0x0 MSTORE PUSH1 0x20 PUSH1 0x0 KECCAK256 SWAP1 JUMPDEST DUP2 SLOAD DUP2 MSTORE SWAP1 PUSH1 0x1 ADD SWAP1 PUSH1 0x20 ADD DUP1 DUP4 GT PUSH2 0x5CC JUMPI DUP3 SWAP1 SUB PUSH1 0x1F AND DUP3 ADD SWAP2 JUMPDEST POP POP POP SWAP2 DUP4 MSTORE POP POP PUSH1 0x2 DUP3 ADD SLOAD PUSH1 0x20 DUP3 ADD MSTORE PUSH1 0x3 DUP3 ADD SLOAD PUSH1 0x1 PUSH1 0x1 PUSH1 0xA0 SHL SUB AND PUSH1 0x40 DUP3 ADD MSTORE PUSH1 0x4 DUP3 ADD SLOAD PUSH1 0x60 DUP3 ADD MSTORE PUSH1 0x5 SWAP1 SWAP2 ADD SLOAD PUSH1 0xFF AND ISZERO ISZERO PUSH1 0x80 SWAP1 SWAP2 ADD MSTORE PUSH1 0xA0 DUP2 ADD MLOAD SWAP1 SWAP2 POP PUSH2 0x67A JUMPI PUSH1 0x40 MLOAD PUSH3 0x461BCD PUSH1 0xE5 SHL DUP2 MSTORE PUSH1 0x20 PUSH1 0x4 DUP3 ADD MSTORE PUSH1 0x15 PUSH1 0x24 DUP3 ADD MSTORE PUSH21 0x149958DBDC9908191BD95CC81B9BDD08195E1A5CDD PUSH1 0x5A SHL PUSH1 0x44 DUP3 ADD MSTORE PUSH1 0x64 ADD JUMPDEST PUSH1 0x40 MLOAD DUP1 SWAP2 SUB SWAP1 REVERT JUMPDEST DUP1 MLOAD PUSH1 0x20 DUP3 ADD MLOAD PUSH1 0x40 DUP4 ADD MLOAD PUSH1 0x60 DUP5 ADD MLOAD PUSH1 0x80 SWAP1 SWAP5 ADD MLOAD SWAP3 SWAP11 SWAP2 SWAP10 POP SWAP8 POP SWAP2 SWAP6 POP SWAP4 POP SWAP2 POP POP JUMP JUMPDEST PUSH1 0x0 PUSH2 0x6AD DUP2 PUSH2 0x107D JUMP JUMPDEST PUSH2 0x6D7 PUSH32 0xC8F5B4140CCA307CD927E59CBEEA8291BFFEEE228FC677F0FA059AEF7B4DD8D5 DUP4 PUSH2 0x71B JUMP JUMPDEST POP POP JUMP JUMPDEST DUP2 MLOAD PUSH1 0x20 DUP2 DUP5 ADD DUP2 ADD DUP1 MLOAD PUSH1 0x5 DUP3 MSTORE SWAP3 DUP3 ADD SWAP2 DUP6 ADD SWAP2 SWAP1 SWAP2 KECCAK256 SWAP2 SWAP1 MSTORE DUP1 SLOAD DUP3 SWAP1 DUP2 LT PUSH2 0x706 JUMPI PUSH1 0x0 DUP1 REVERT JUMPDEST SWAP1 PUSH1 0x0 MSTORE PUSH1 0x20 PUSH1 0x0 KECCAK256 ADD PUSH1 0x0 SWAP2 POP SWAP2 POP POP SLOAD DUP2 JUMP JUMPDEST PUSH1 0x0 DUP3 DUP2 MSTORE PUSH1 0x20 DUP2 SWAP1 MSTORE PUSH1 0x40 SWAP1 KECCAK256 PUSH1 0x1 ADD SLOAD PUSH2 0x736 DUP2 PUSH2 0x107D JUMP JUMPDEST PUSH2 0x740 DUP4 DUP4 PUSH2 0x108A JUMP JUMPDEST POP POP POP JUMP JUMPDEST PUSH1 0x1 PUSH1 0x1 PUSH1 0xA0 SHL SUB DUP2 AND CALLER EQ PUSH2 0x7B5 JUMPI PUSH1 0x40 MLOAD PUSH3 0x461BCD PUSH1 0xE5 SHL DUP2 MSTORE PUSH1 0x20 PUSH1 0x4 DUP3 ADD MSTORE PUSH1 0x2F PUSH1 0x24 DUP3 ADD MSTORE PUSH32 0x416363657373436F6E74726F6C3A2063616E206F6E6C792072656E6F756E6365 PUSH1 0x44 DUP3 ADD MSTORE PUSH15 0x103937B632B9903337B91039B2B633 PUSH1 0x89 SHL PUSH1 0x64 DUP3 ADD MSTORE PUSH1 0x84 ADD PUSH2 0x671 JUMP JUMPDEST PUSH2 0x6D7 DUP3 DUP3 PUSH2 0x110E JUMP JUMPDEST DUP1 MLOAD PUSH1 0x20 DUP2 DUP4 ADD DUP2 ADD DUP1 MLOAD PUSH1 0x3 DUP3 MSTORE SWAP3 DUP3 ADD SWAP2 SWAP1 SWAP4 ADD KECCAK256 SWAP2 MSTORE DUP1 SLOAD DUP2 SWAP1 PUSH2 0x7E5 SWAP1 PUSH2 0x1827 JUMP JUMPDEST DUP1 PUSH1 0x1F ADD PUSH1 0x20 DUP1 SWAP2 DIV MUL PUSH1 0x20 ADD PUSH1 0x40 MLOAD SWAP1 DUP2 ADD PUSH1 0x40 MSTORE DUP1 SWAP3 SWAP2 SWAP1 DUP2 DUP2 MSTORE PUSH1 0x20 ADD DUP3 DUP1 SLOAD PUSH2 0x811 SWAP1 PUSH2 0x1827 JUMP JUMPDEST DUP1 ISZERO PUSH2 0x85E JUMPI DUP1 PUSH1 0x1F LT PUSH2 0x833 JUMPI PUSH2 0x100 DUP1 DUP4 SLOAD DIV MUL DUP4 MSTORE SWAP2 PUSH1 0x20 ADD SWAP2 PUSH2 0x85E JUMP JUMPDEST DUP3 ADD SWAP2 SWAP1 PUSH1 0x0 MSTORE PUSH1 0x20 PUSH1 0x0 KECCAK256 SWAP1 JUMPDEST DUP2 SLOAD DUP2 MSTORE SWAP1 PUSH1 0x1 ADD SWAP1 PUSH1 0x20 ADD DUP1 DUP4 GT PUSH2 0x841 JUMPI DUP3 SWAP1 SUB PUSH1 0x1F AND DUP3 ADD SWAP2 JUMPDEST POP POP POP POP POP SWAP1 DUP1 PUSH1 0x1 ADD DUP1 SLOAD PUSH2 0x873 SWAP1 PUSH2 0x1827 JUMP JUMPDEST DUP1 PUSH1 0x1F ADD PUSH1 0x20 DUP1 SWAP2 DIV MUL PUSH1 0x20 ADD PUSH1 0x40 MLOAD SWAP1 DUP2 ADD PUSH1 0x40 MSTORE DUP1 SWAP3 SWAP2 SWAP1 DUP2 DUP2 MSTORE PUSH1 0x20 ADD DUP3 DUP1 SLOAD PUSH2 0x89F SWAP1 PUSH2 0x1827 JUMP JUMPDEST DUP1 ISZERO PUSH2 0x8EC JUMPI DUP1 PUSH1 0x1F LT PUSH2 0x8C1 JUMPI PUSH2 0x100 DUP1 DUP4 SLOAD DIV MUL DUP4 MSTORE SWAP2 PUSH1 0x20 ADD SWAP2 PUSH2 0x8EC JUMP JUMPDEST DUP3 ADD SWAP2 SWAP1 PUSH1 0x0 MSTORE PUSH1 0x20 PUSH1 0x0 KECCAK256 SWAP1 JUMPDEST DUP2 SLOAD DUP2 MSTORE SWAP1 PUSH1 0x1 ADD SWAP1 PUSH1 0x20 ADD DUP1 DUP4 GT PUSH2 0x8CF JUMPI DUP3 SWAP1 SUB PUSH1 0x1F AND DUP3 ADD SWAP2 JUMPDEST POP POP POP POP PUSH1 0x2 DUP4 ADD SLOAD PUSH1 0x3 DUP5 ADD SLOAD PUSH1 0x4 DUP6 ADD SLOAD PUSH1 0x5 SWAP1 SWAP6 ADD SLOAD SWAP4 SWAP5 SWAP2 SWAP4 PUSH1 0x1 PUSH1 0x1 PUSH1 0xA0 SHL SUB SWAP1 SWAP2 AND SWAP3 POP PUSH1 0xFF AND DUP7 JUMP JUMPDEST PUSH1 0x3 DUP4 PUSH1 0x40 MLOAD PUSH2 0x92C SWAP2 SWAP1 PUSH2 0x1861 JUMP JUMPDEST SWAP1 DUP2 MSTORE PUSH1 0x40 MLOAD SWAP1 DUP2 SWAP1 SUB PUSH1 0x20 ADD SWAP1 KECCAK256 PUSH1 0x5 ADD SLOAD PUSH1 0xFF AND PUSH2 0x986 JUMPI PUSH1 0x40 MLOAD PUSH3 0x461BCD PUSH1 0xE5 SHL DUP2 MSTORE PUSH1 0x20 PUSH1 0x4 DUP3 ADD MSTORE PUSH1 0x15 PUSH1 0x24 DUP3 ADD MSTORE PUSH21 0x149958DBDC9908191BD95CC81B9BDD08195E1A5CDD PUSH1 0x5A SHL PUSH1 0x44 DUP3 ADD MSTORE PUSH1 0x64 ADD PUSH2 0x671 JUMP JUMPDEST DUP2 PUSH1 0x1 PUSH1 0x1 PUSH1 0xA0 SHL SUB AND DUP4 PUSH1 0x40 MLOAD PUSH2 0x99E SWAP2 SWAP1 PUSH2 0x1861 JUMP JUMPDEST PUSH1 0x40 MLOAD DUP1 SWAP2 SUB SWAP1 KECCAK256 PUSH32 0xE4127093A20C11D148206B5B5285E41668B5F5BB01A28069BE7352458FB912A1 DUP4 TIMESTAMP PUSH1 0x40 MLOAD PUSH2 0x9D7 SWAP3 SWAP2 SWAP1 PUSH2 0x187D JUMP JUMPDEST PUSH1 0x40 MLOAD DUP1 SWAP2 SUB SWAP1 LOG3 POP POP POP JUMP JUMPDEST PUSH1 0x0 SWAP2 DUP3 MSTORE PUSH1 0x20 DUP3 DUP2 MSTORE PUSH1 0x40 DUP1 DUP5 KECCAK256 PUSH1 0x1 PUSH1 0x1 PUSH1 0xA0 SHL SUB SWAP4 SWAP1 SWAP4 AND DUP5 MSTORE SWAP2 SWAP1 MSTORE SWAP1 KECCAK256 SLOAD PUSH1 0xFF AND SWAP1 JUMP JUMPDEST PUSH1 0x60 PUSH1 0x0 DUP1 PUSH1 0x0 DUP1 PUSH1 0x0 PUSH1 0x4 PUSH1 0x0 DUP9 DUP2 MSTORE PUSH1 0x20 ADD SWAP1 DUP2 MSTORE PUSH1 0x20 ADD PUSH1 0x0 KECCAK256 PUSH1 0x40 MLOAD DUP1 PUSH1 0xA0 ADD PUSH1 0x40 MSTORE SWAP1 DUP2 PUSH1 0x0 DUP3 ADD DUP1 SLOAD PUSH2 0xA45 SWAP1 PUSH2 0x1827 JUMP JUMPDEST DUP1 PUSH1 0x1F ADD PUSH1 0x20 DUP1 SWAP2 DIV MUL PUSH1 0x20 ADD PUSH1 0x40 MLOAD SWAP1 DUP2 ADD PUSH1 0x40 MSTORE DUP1 SWAP3 SWAP2 SWAP1 DUP2 DUP2 MSTORE PUSH1 0x20 ADD DUP3 DUP1 SLOAD PUSH2 0xA71 SWAP1 PUSH2 0x1827 JUMP JUMPDEST DUP1 ISZERO PUSH2 0xABE JUMPI DUP1 PUSH1 0x1F LT PUSH2 0xA93 JUMPI PUSH2 0x100 DUP1 DUP4 SLOAD DIV MUL DUP4 MSTORE SWAP2 PUSH1 0x20 ADD SWAP2 PUSH2 0xABE JUMP JUMPDEST DUP3 ADD SWAP2 SWAP1 PUSH1 0x0 MSTORE PUSH1 0x20 PUSH1 0x0 KECCAK256 SWAP1 JUMPDEST DUP2 SLOAD DUP2 MSTORE SWAP1 PUSH1 0x1 ADD SWAP1 PUSH1 0x20 ADD DUP1 DUP4 GT PUSH2 0xAA1 JUMPI DUP3 SWAP1 SUB PUSH1 0x1F AND DUP3 ADD SWAP2 JUMPDEST POP POP POP SWAP2 DUP4 MSTORE POP POP PUSH1 0x1 DUP3 ADD SLOAD PUSH1 0x1 PUSH1 0x1 PUSH1 0xA0 SHL SUB AND PUSH1 0x20 DUP1 DUP4 ADD SWAP2 SWAP1 SWAP2 MSTORE PUSH1 0x2 DUP4 ADD SLOAD PUSH1 0x40 DUP1 DUP5 ADD SWAP2 SWAP1 SWAP2 MSTORE PUSH1 0x3 DUP5 ADD SLOAD PUSH1 0xFF AND ISZERO ISZERO PUSH1 0x60 DUP1 DUP6 ADD SWAP2 SWAP1 SWAP2 MSTORE PUSH1 0x4 SWAP1 SWAP5 ADD SLOAD PUSH1 0x80 SWAP4 DUP5 ADD MSTORE DUP5 MLOAD SWAP2 DUP6 ADD MLOAD SWAP1 DUP6 ADD MLOAD SWAP4 DUP6 ADD MLOAD SWAP5 SWAP1 SWAP3 ADD MLOAD SWAP1 SWAP12 SWAP2 SWAP11 POP SWAP2 SWAP9 POP SWAP2 SWAP7 POP SWAP5 POP SWAP3 POP POP POP JUMP JUMPDEST PUSH1 0x1 PUSH1 0x1 PUSH1 0xA0 SHL SUB DUP3 AND PUSH1 0x0 SWAP1 DUP2 MSTORE PUSH1 0x6 PUSH1 0x20 MSTORE PUSH1 0x40 DUP1 DUP3 KECCAK256 SWAP1 MLOAD PUSH2 0xB56 SWAP1 DUP5 SWAP1 PUSH2 0x1861 JUMP JUMPDEST SWAP1 DUP2 MSTORE PUSH1 0x40 MLOAD SWAP1 DUP2 SWAP1 SUB PUSH1 0x20 ADD SWAP1 KECCAK256 SLOAD PUSH1 0xFF AND SWAP1 POP SWAP3 SWAP2 POP POP JUMP JUMPDEST PUSH1 0x0 PUSH2 0xB7C DUP2 PUSH2 0x107D JUMP JUMPDEST PUSH2 0x6D7 PUSH32 0xEB0A07781E3EE843C0D85F7381C2E1A1E1A6EA86BCDCD944EF649D46E7DCD972 DUP4 PUSH2 0x71B JUMP JUMPDEST PUSH1 0x0 DUP3 DUP2 MSTORE PUSH1 0x20 DUP2 SWAP1 MSTORE PUSH1 0x40 SWAP1 KECCAK256 PUSH1 0x1 ADD SLOAD PUSH2 0xBC1 DUP2 PUSH2 0x107D JUMP JUMPDEST PUSH2 0x740 DUP4 DUP4 PUSH2 0x110E JUMP JUMPDEST PUSH1 0x0 DUP2 DUP2 MSTORE PUSH1 0x4 PUSH1 0x20 MSTORE PUSH1 0x40 SWAP1 KECCAK256 PUSH1 0x3 DUP2 ADD SLOAD PUSH1 0xFF AND PUSH2 0xC26 JUMPI PUSH1 0x40 MLOAD PUSH3 0x461BCD PUSH1 0xE5 SHL DUP2 MSTORE PUSH1 0x20 PUSH1 0x4 DUP3 ADD MSTORE PUSH1 0x16 PUSH1 0x24 DUP3 ADD MSTORE PUSH22 0x546F6B656E20616C726561647920696E616374697665 PUSH1 0x50 SHL PUSH1 0x44 DUP3 ADD MSTORE PUSH1 0x64 ADD PUSH2 0x671 JUMP JUMPDEST PUSH1 0x3 DUP2 ADD DUP1 SLOAD PUSH1 0xFF NOT AND SWAP1 SSTORE PUSH1 0x1 DUP2 ADD SLOAD PUSH1 0x1 PUSH1 0x1 PUSH1 0xA0 SHL SUB AND PUSH1 0x0 SWAP1 DUP2 MSTORE PUSH1 0x6 PUSH1 0x20 MSTORE PUSH1 0x40 DUP1 DUP3 KECCAK256 SWAP1 MLOAD PUSH2 0xC5C SWAP1 DUP5 SWAP1 PUSH2 0x189F JUMP JUMPDEST SWAP1 DUP2 MSTORE PUSH1 0x40 MLOAD SWAP1 DUP2 SWAP1 SUB PUSH1 0x20 ADD DUP2 KECCAK256 DUP1 SLOAD SWAP3 ISZERO ISZERO PUSH1 0xFF NOT SWAP1 SWAP4 AND SWAP3 SWAP1 SWAP3 OR SWAP1 SWAP2 SSTORE PUSH1 0x1 DUP3 ADD SLOAD PUSH1 0x1 PUSH1 0x1 PUSH1 0xA0 SHL SUB AND SWAP1 PUSH2 0xC97 SWAP1 DUP4 SWAP1 PUSH2 0x189F JUMP JUMPDEST PUSH1 0x40 MLOAD SWAP1 DUP2 SWAP1 SUB DUP2 KECCAK256 SWAP1 DUP5 SWAP1 PUSH32 0xD961890B74BBDBB62DF087B1C5F5D0B7E4020004685AD37E50AA9190E949681D SWAP1 PUSH1 0x0 SWAP1 LOG4 POP POP JUMP JUMPDEST PUSH1 0x0 TIMESTAMP DUP3 GT PUSH2 0xD1E JUMPI PUSH1 0x40 MLOAD PUSH3 0x461BCD PUSH1 0xE5 SHL DUP2 MSTORE PUSH1 0x20 PUSH1 0x4 DUP3 ADD MSTORE PUSH1 0x17 PUSH1 0x24 DUP3 ADD MSTORE PUSH32 0x496E76616C69642065787069726174696F6E2074696D65000000000000000000 PUSH1 0x44 DUP3 ADD MSTORE PUSH1 0x64 ADD PUSH2 0x671 JUMP JUMPDEST PUSH1 0x0 PUSH2 0xD29 PUSH1 0x2 SLOAD SWAP1 JUMP JUMPDEST SWAP1 POP PUSH2 0xD39 PUSH1 0x2 DUP1 SLOAD PUSH1 0x1 ADD SWAP1 SSTORE JUMP JUMPDEST PUSH1 0x40 DUP1 MLOAD PUSH1 0xA0 DUP2 ADD DUP3 MSTORE DUP7 DUP2 MSTORE PUSH1 0x1 PUSH1 0x1 PUSH1 0xA0 SHL SUB DUP7 AND PUSH1 0x20 DUP1 DUP4 ADD SWAP2 SWAP1 SWAP2 MSTORE DUP2 DUP4 ADD DUP7 SWAP1 MSTORE PUSH1 0x1 PUSH1 0x60 DUP4 ADD MSTORE TIMESTAMP PUSH1 0x80 DUP4 ADD MSTORE PUSH1 0x0 DUP5 DUP2 MSTORE PUSH1 0x4 SWAP1 SWAP2 MSTORE SWAP2 SWAP1 SWAP2 KECCAK256 DUP2 MLOAD DUP2 SWAP1 PUSH2 0xD88 SWAP1 DUP3 PUSH2 0x1963 JUMP JUMPDEST POP PUSH1 0x20 DUP3 ADD MLOAD PUSH1 0x1 DUP3 ADD DUP1 SLOAD PUSH1 0x1 PUSH1 0x1 PUSH1 0xA0 SHL SUB NOT AND PUSH1 0x1 PUSH1 0x1 PUSH1 0xA0 SHL SUB SWAP1 SWAP3 AND SWAP2 SWAP1 SWAP2 OR SWAP1 SSTORE PUSH1 0x40 DUP1 DUP4 ADD MLOAD PUSH1 0x2 DUP4 ADD SSTORE PUSH1 0x60 DUP4 ADD MLOAD PUSH1 0x3 DUP4 ADD DUP1 SLOAD PUSH1 0xFF NOT AND SWAP2 ISZERO ISZERO SWAP2 SWAP1 SWAP2 OR SWAP1 SSTORE PUSH1 0x80 SWAP1 SWAP3 ADD MLOAD PUSH1 0x4 SWAP1 SWAP2 ADD SSTORE MLOAD PUSH1 0x5 SWAP1 PUSH2 0xDED SWAP1 DUP8 SWAP1 PUSH2 0x1861 JUMP JUMPDEST SWAP1 DUP2 MSTORE PUSH1 0x40 DUP1 MLOAD PUSH1 0x20 SWAP3 DUP2 SWAP1 SUB DUP4 ADD DUP2 KECCAK256 DUP1 SLOAD PUSH1 0x1 DUP1 DUP3 ADD DUP4 SSTORE PUSH1 0x0 SWAP3 DUP4 MSTORE DUP6 DUP4 KECCAK256 SWAP1 SWAP2 ADD DUP7 SWAP1 SSTORE PUSH1 0x1 PUSH1 0x1 PUSH1 0xA0 SHL SUB DUP10 AND DUP3 MSTORE PUSH1 0x6 SWAP1 SWAP5 MSTORE SWAP2 SWAP1 SWAP2 KECCAK256 SWAP1 PUSH2 0xE36 SWAP1 DUP9 SWAP1 PUSH2 0x1861 JUMP JUMPDEST SWAP1 DUP2 MSTORE PUSH1 0x40 MLOAD SWAP1 DUP2 SWAP1 SUB PUSH1 0x20 ADD DUP2 KECCAK256 DUP1 SLOAD SWAP3 ISZERO ISZERO PUSH1 0xFF NOT SWAP1 SWAP4 AND SWAP3 SWAP1 SWAP3 OR SWAP1 SWAP2 SSTORE PUSH1 0x1 PUSH1 0x1 PUSH1 0xA0 SHL SUB DUP6 AND SWAP1 PUSH2 0xE6D SWAP1 DUP8 SWAP1 PUSH2 0x1861 JUMP JUMPDEST PUSH1 0x40 MLOAD DUP1 SWAP2 SUB SWAP1 KECCAK256 DUP3 PUSH32 0xBE08B5C88DBBB9B59F5C0A92338B55E5269FCECCC156E9EC693BB529EA8B0639 DUP7 PUSH1 0x40 MLOAD PUSH2 0xEA7 SWAP2 DUP2 MSTORE PUSH1 0x20 ADD SWAP1 JUMP JUMPDEST PUSH1 0x40 MLOAD DUP1 SWAP2 SUB SWAP1 LOG4 SWAP5 SWAP4 POP POP POP POP JUMP JUMPDEST PUSH32 0xC8F5B4140CCA307CD927E59CBEEA8291BFFEEE228FC677F0FA059AEF7B4DD8D5 PUSH2 0xEE1 DUP2 PUSH2 0x107D JUMP JUMPDEST PUSH1 0x3 DUP6 PUSH1 0x40 MLOAD PUSH2 0xEF1 SWAP2 SWAP1 PUSH2 0x1861 JUMP JUMPDEST SWAP1 DUP2 MSTORE PUSH1 0x40 MLOAD SWAP1 DUP2 SWAP1 SUB PUSH1 0x20 ADD SWAP1 KECCAK256 PUSH1 0x5 ADD SLOAD PUSH1 0xFF AND ISZERO PUSH2 0xF4C JUMPI PUSH1 0x40 MLOAD PUSH3 0x461BCD PUSH1 0xE5 SHL DUP2 MSTORE PUSH1 0x20 PUSH1 0x4 DUP3 ADD MSTORE PUSH1 0x15 PUSH1 0x24 DUP3 ADD MSTORE PUSH21 0x5265636F726420616C726561647920657869737473 PUSH1 0x58 SHL PUSH1 0x44 DUP3 ADD MSTORE PUSH1 0x64 ADD PUSH2 0x671 JUMP JUMPDEST PUSH1 0x40 DUP1 MLOAD PUSH1 0xC0 DUP2 ADD DUP3 MSTORE DUP6 DUP2 MSTORE PUSH1 0x20 DUP2 ADD DUP6 SWAP1 MSTORE DUP1 DUP3 ADD DUP5 SWAP1 MSTORE CALLER PUSH1 0x60 DUP3 ADD MSTORE TIMESTAMP PUSH1 0x80 DUP3 ADD MSTORE PUSH1 0x1 PUSH1 0xA0 DUP3 ADD MSTORE SWAP1 MLOAD PUSH1 0x3 SWAP1 PUSH2 0xF89 SWAP1 DUP9 SWAP1 PUSH2 0x1861 JUMP JUMPDEST SWAP1 DUP2 MSTORE PUSH1 0x40 MLOAD SWAP1 DUP2 SWAP1 SUB PUSH1 0x20 ADD SWAP1 KECCAK256 DUP2 MLOAD DUP2 SWAP1 PUSH2 0xFA6 SWAP1 DUP3 PUSH2 0x1963 JUMP JUMPDEST POP PUSH1 0x20 DUP3 ADD MLOAD PUSH1 0x1 DUP3 ADD SWAP1 PUSH2 0xFBB SWAP1 DUP3 PUSH2 0x1963 JUMP JUMPDEST POP PUSH1 0x40 DUP3 DUP2 ADD MLOAD PUSH1 0x2 DUP4 ADD SSTORE PUSH1 0x60 DUP4 ADD MLOAD PUSH1 0x3 DUP4 ADD DUP1 SLOAD PUSH1 0x1 PUSH1 0x1 PUSH1 0xA0 SHL SUB NOT AND PUSH1 0x1 PUSH1 0x1 PUSH1 0xA0 SHL SUB SWAP1 SWAP3 AND SWAP2 SWAP1 SWAP2 OR SWAP1 SSTORE PUSH1 0x80 DUP4 ADD MLOAD PUSH1 0x4 DUP4 ADD SSTORE PUSH1 0xA0 SWAP1 SWAP3 ADD MLOAD PUSH1 0x5 SWAP1 SWAP2 ADD DUP1 SLOAD PUSH1 0xFF NOT AND SWAP2 ISZERO ISZERO SWAP2 SWAP1 SWAP2 OR SWAP1 SSTORE MLOAD CALLER SWAP1 PUSH2 0x101F SWAP1 DUP7 SWAP1 PUSH2 0x1861 JUMP JUMPDEST PUSH1 0x40 MLOAD DUP1 SWAP2 SUB SWAP1 KECCAK256 DUP7 PUSH1 0x40 MLOAD PUSH2 0x1035 SWAP2 SWAP1 PUSH2 0x1861 JUMP JUMPDEST PUSH1 0x40 MLOAD DUP1 SWAP2 SUB SWAP1 KECCAK256 PUSH32 0x874707E2D1DA52416C11042B7804F8FDE430F816A6E247CA8CF1479B55FB91DD DUP7 TIMESTAMP PUSH1 0x40 MLOAD PUSH2 0x106E SWAP3 SWAP2 SWAP1 PUSH2 0x187D JUMP JUMPDEST PUSH1 0x40 MLOAD DUP1 SWAP2 SUB SWAP1 LOG4 POP POP POP POP POP JUMP JUMPDEST PUSH2 0x1087 DUP2 CALLER PUSH2 0x1173 JUMP JUMPDEST POP JUMP JUMPDEST PUSH2 0x1094 DUP3 DUP3 PUSH2 0x9E4 JUMP JUMPDEST PUSH2 0x6D7 JUMPI PUSH1 0x0 DUP3 DUP2 MSTORE PUSH1 0x20 DUP2 DUP2 MSTORE PUSH1 0x40 DUP1 DUP4 KECCAK256 PUSH1 0x1 PUSH1 0x1 PUSH1 0xA0 SHL SUB DUP6 AND DUP5 MSTORE SWAP1 SWAP2 MSTORE SWAP1 KECCAK256 DUP1 SLOAD PUSH1 0xFF NOT AND PUSH1 0x1 OR SWAP1 SSTORE PUSH2 0x10CA CALLER SWAP1 JUMP JUMPDEST PUSH1 0x1 PUSH1 0x1 PUSH1 0xA0 SHL SUB AND DUP2 PUSH1 0x1 PUSH1 0x1 PUSH1 0xA0 SHL SUB AND DUP4 PUSH32 0x2F8788117E7EFF1D82E926EC794901D17C78024A50270940304540A733656F0D PUSH1 0x40 MLOAD PUSH1 0x40 MLOAD DUP1 SWAP2 SUB SWAP1 LOG4 POP POP JUMP JUMPDEST PUSH2 0x1118 DUP3 DUP3 PUSH2 0x9E4 JUMP JUMPDEST ISZERO PUSH2 0x6D7 JUMPI PUSH1 0x0 DUP3 DUP2 MSTORE PUSH1 0x20 DUP2 DUP2 MSTORE PUSH1 0x40 DUP1 DUP4 KECCAK256 PUSH1 0x1 PUSH1 0x1 PUSH1 0xA0 SHL SUB DUP6 AND DUP1 DUP6 MSTORE SWAP3 MSTORE DUP1 DUP4 KECCAK256 DUP1 SLOAD PUSH1 0xFF NOT AND SWAP1 SSTORE MLOAD CALLER SWAP3 DUP6 SWAP2 PUSH32 0xF6391F5C32D9C69D2A47EA670B442974B53935D1EDC7FD64EB21E047A839171B SWAP2 SWAP1 LOG4 POP POP JUMP JUMPDEST PUSH2 0x117D DUP3 DUP3 PUSH2 0x9E4 JUMP JUMPDEST PUSH2 0x6D7 JUMPI PUSH2 0x118A DUP2 PUSH2 0x11CC JUMP JUMPDEST PUSH2 0x1195 DUP4 PUSH1 0x20 PUSH2 0x11DE JUMP JUMPDEST PUSH1 0x40 MLOAD PUSH1 0x20 ADD PUSH2 0x11A6 SWAP3 SWAP2 SWAP1 PUSH2 0x1A23 JUMP JUMPDEST PUSH1 0x40 DUP1 MLOAD PUSH1 0x1F NOT DUP2 DUP5 SUB ADD DUP2 MSTORE SWAP1 DUP3 SWAP1 MSTORE PUSH3 0x461BCD PUSH1 0xE5 SHL DUP3 MSTORE PUSH2 0x671 SWAP2 PUSH1 0x4 ADD PUSH2 0x1A98 JUMP JUMPDEST PUSH1 0x60 PUSH2 0x496 PUSH1 0x1 PUSH1 0x1 PUSH1 0xA0 SHL SUB DUP4 AND PUSH1 0x14 JUMPDEST PUSH1 0x60 PUSH1 0x0 PUSH2 0x11ED DUP4 PUSH1 0x2 PUSH2 0x1AC1 JUMP JUMPDEST PUSH2 0x11F8 SWAP1 PUSH1 0x2 PUSH2 0x1AD8 JUMP JUMPDEST PUSH8 0xFFFFFFFFFFFFFFFF DUP2 GT ISZERO PUSH2 0x1210 JUMPI PUSH2 0x1210 PUSH2 0x1454 JUMP JUMPDEST PUSH1 0x40 MLOAD SWAP1 DUP1 DUP3 MSTORE DUP1 PUSH1 0x1F ADD PUSH1 0x1F NOT AND PUSH1 0x20 ADD DUP3 ADD PUSH1 0x40 MSTORE DUP1 ISZERO PUSH2 0x123A JUMPI PUSH1 0x20 DUP3 ADD DUP2 DUP1 CALLDATASIZE DUP4 CALLDATACOPY ADD SWAP1 POP JUMPDEST POP SWAP1 POP PUSH1 0x3 PUSH1 0xFC SHL DUP2 PUSH1 0x0 DUP2 MLOAD DUP2 LT PUSH2 0x1255 JUMPI PUSH2 0x1255 PUSH2 0x1AEB JUMP JUMPDEST PUSH1 0x20 ADD ADD SWAP1 PUSH1 0x1 PUSH1 0x1 PUSH1 0xF8 SHL SUB NOT AND SWAP1 DUP2 PUSH1 0x0 BYTE SWAP1 MSTORE8 POP PUSH1 0xF PUSH1 0xFB SHL DUP2 PUSH1 0x1 DUP2 MLOAD DUP2 LT PUSH2 0x1284 JUMPI PUSH2 0x1284 PUSH2 0x1AEB JUMP JUMPDEST PUSH1 0x20 ADD ADD SWAP1 PUSH1 0x1 PUSH1 0x1 PUSH1 0xF8 SHL SUB NOT AND SWAP1 DUP2 PUSH1 0x0 BYTE SWAP1 MSTORE8 POP PUSH1 0x0 PUSH2 0x12A8 DUP5 PUSH1 0x2 PUSH2 0x1AC1 JUMP JUMPDEST PUSH2 0x12B3 SWAP1 PUSH1 0x1 PUSH2 0x1AD8 JUMP JUMPDEST SWAP1 POP JUMPDEST PUSH1 0x1 DUP2 GT ISZERO PUSH2 0x132B JUMPI PUSH16 0x181899199A1A9B1B9C1CB0B131B232B3 PUSH1 0x81 SHL DUP6 PUSH1 0xF AND PUSH1 0x10 DUP2 LT PUSH2 0x12E7 JUMPI PUSH2 0x12E7 PUSH2 0x1AEB JUMP JUMPDEST BYTE PUSH1 0xF8 SHL DUP3 DUP3 DUP2 MLOAD DUP2 LT PUSH2 0x12FD JUMPI PUSH2 0x12FD PUSH2 0x1AEB JUMP JUMPDEST PUSH1 0x20 ADD ADD SWAP1 PUSH1 0x1 PUSH1 0x1 PUSH1 0xF8 SHL SUB NOT AND SWAP1 DUP2 PUSH1 0x0 BYTE SWAP1 MSTORE8 POP PUSH1 0x4 SWAP5 SWAP1 SWAP5 SHR SWAP4 PUSH2 0x1324 DUP2 PUSH2 0x1B01 JUMP JUMPDEST SWAP1 POP PUSH2 0x12B6 JUMP JUMPDEST POP DUP4 ISZERO PUSH2 0x137A JUMPI PUSH1 0x40 MLOAD PUSH3 0x461BCD PUSH1 0xE5 SHL DUP2 MSTORE PUSH1 0x20 PUSH1 0x4 DUP3 ADD DUP2 SWAP1 MSTORE PUSH1 0x24 DUP3 ADD MSTORE PUSH32 0x537472696E67733A20686578206C656E67746820696E73756666696369656E74 PUSH1 0x44 DUP3 ADD MSTORE PUSH1 0x64 ADD PUSH2 0x671 JUMP JUMPDEST SWAP4 SWAP3 POP POP POP JUMP JUMPDEST PUSH1 0x0 PUSH1 0x20 DUP3 DUP5 SUB SLT ISZERO PUSH2 0x1393 JUMPI PUSH1 0x0 DUP1 REVERT JUMPDEST POP CALLDATALOAD SWAP2 SWAP1 POP JUMP JUMPDEST PUSH1 0x0 JUMPDEST DUP4 DUP2 LT ISZERO PUSH2 0x13B5 JUMPI DUP2 DUP2 ADD MLOAD DUP4 DUP3 ADD MSTORE PUSH1 0x20 ADD PUSH2 0x139D JUMP JUMPDEST POP POP PUSH1 0x0 SWAP2 ADD MSTORE JUMP JUMPDEST PUSH1 0x0 DUP2 MLOAD DUP1 DUP5 MSTORE PUSH2 0x13D6 DUP2 PUSH1 0x20 DUP7 ADD PUSH1 0x20 DUP7 ADD PUSH2 0x139A JUMP JUMPDEST PUSH1 0x1F ADD PUSH1 0x1F NOT AND SWAP3 SWAP1 SWAP3 ADD PUSH1 0x20 ADD SWAP3 SWAP2 POP POP JUMP JUMPDEST PUSH1 0xA0 DUP2 MSTORE PUSH1 0x0 PUSH2 0x13FD PUSH1 0xA0 DUP4 ADD DUP9 PUSH2 0x13BE JUMP JUMPDEST PUSH1 0x1 PUSH1 0x1 PUSH1 0xA0 SHL SUB SWAP7 SWAP1 SWAP7 AND PUSH1 0x20 DUP4 ADD MSTORE POP PUSH1 0x40 DUP2 ADD SWAP4 SWAP1 SWAP4 MSTORE SWAP1 ISZERO ISZERO PUSH1 0x60 DUP4 ADD MSTORE PUSH1 0x80 SWAP1 SWAP2 ADD MSTORE SWAP2 SWAP1 POP JUMP JUMPDEST PUSH1 0x0 PUSH1 0x20 DUP3 DUP5 SUB SLT ISZERO PUSH2 0x143C JUMPI PUSH1 0x0 DUP1 REVERT JUMPDEST DUP2 CALLDATALOAD PUSH1 0x1 PUSH1 0x1 PUSH1 0xE0 SHL SUB NOT DUP2 AND DUP2 EQ PUSH2 0x137A JUMPI PUSH1 0x0 DUP1 REVERT JUMPDEST PUSH4 0x4E487B71 PUSH1 0xE0 SHL PUSH1 0x0 MSTORE PUSH1 0x41 PUSH1 0x4 MSTORE PUSH1 0x24 PUSH1 0x0 REVERT JUMPDEST PUSH1 0x0 DUP3 PUSH1 0x1F DUP4 ADD SLT PUSH2 0x147B JUMPI PUSH1 0x0 DUP1 REVERT JUMPDEST DUP2 CALLDATALOAD PUSH8 0xFFFFFFFFFFFFFFFF DUP1 DUP3 GT ISZERO PUSH2 0x1496 JUMPI PUSH2 0x1496 PUSH2 0x1454 JUMP JUMPDEST PUSH1 0x40 MLOAD PUSH1 0x1F DUP4 ADD PUSH1 0x1F NOT SWAP1 DUP2 AND PUSH1 0x3F ADD AND DUP2 ADD SWAP1 DUP3 DUP3 GT DUP2 DUP4 LT OR ISZERO PUSH2 0x14BE JUMPI PUSH2 0x14BE PUSH2 0x1454 JUMP JUMPDEST DUP2 PUSH1 0x40 MSTORE DUP4 DUP2 MSTORE DUP7 PUSH1 0x20 DUP6 DUP9 ADD ADD GT ISZERO PUSH2 0x14D7 JUMPI PUSH1 0x0 DUP1 REVERT JUMPDEST DUP4 PUSH1 0x20 DUP8 ADD PUSH1 0x20 DUP4 ADD CALLDATACOPY PUSH1 0x0 PUSH1 0x20 DUP6 DUP4 ADD ADD MSTORE DUP1 SWAP5 POP POP POP POP POP SWAP3 SWAP2 POP POP JUMP JUMPDEST PUSH1 0x0 PUSH1 0x20 DUP3 DUP5 SUB SLT ISZERO PUSH2 0x1509 JUMPI PUSH1 0x0 DUP1 REVERT JUMPDEST DUP2 CALLDATALOAD PUSH8 0xFFFFFFFFFFFFFFFF DUP2 GT ISZERO PUSH2 0x1520 JUMPI PUSH1 0x0 DUP1 REVERT JUMPDEST PUSH2 0x152C DUP5 DUP3 DUP6 ADD PUSH2 0x146A JUMP JUMPDEST SWAP5 SWAP4 POP POP POP POP JUMP JUMPDEST PUSH1 0xA0 DUP2 MSTORE PUSH1 0x0 PUSH2 0x1547 PUSH1 0xA0 DUP4 ADD DUP9 PUSH2 0x13BE JUMP JUMPDEST DUP3 DUP2 SUB PUSH1 0x20 DUP5 ADD MSTORE PUSH2 0x1559 DUP2 DUP9 PUSH2 0x13BE JUMP JUMPDEST PUSH1 0x40 DUP5 ADD SWAP7 SWAP1 SWAP7 MSTORE POP POP PUSH1 0x1 PUSH1 0x1 PUSH1 0xA0 SHL SUB SWAP3 SWAP1 SWAP3 AND PUSH1 0x60 DUP4 ADD MSTORE PUSH1 0x80 SWAP1 SWAP2 ADD MSTORE SWAP3 SWAP2 POP POP JUMP JUMPDEST DUP1 CALLDATALOAD PUSH1 0x1 PUSH1 0x1 PUSH1 0xA0 SHL SUB DUP2 AND DUP2 EQ PUSH2 0x1597 JUMPI PUSH1 0x0 DUP1 REVERT JUMPDEST SWAP2 SWAP1 POP JUMP JUMPDEST PUSH1 0x0 PUSH1 0x20 DUP3 DUP5 SUB SLT ISZERO PUSH2 0x15AE JUMPI PUSH1 0x0 DUP1 REVERT JUMPDEST PUSH2 0x137A DUP3 PUSH2 0x1580 JUMP JUMPDEST PUSH1 0x0 DUP1 PUSH1 0x40 DUP4 DUP6 SUB SLT ISZERO PUSH2 0x15CA JUMPI PUSH1 0x0 DUP1 REVERT JUMPDEST DUP3 CALLDATALOAD PUSH8 0xFFFFFFFFFFFFFFFF DUP2 GT ISZERO PUSH2 0x15E1 JUMPI PUSH1 0x0 DUP1 REVERT JUMPDEST PUSH2 0x15ED DUP6 DUP3 DUP7 ADD PUSH2 0x146A JUMP JUMPDEST SWAP6 PUSH1 0x20 SWAP5 SWAP1 SWAP5 ADD CALLDATALOAD SWAP5 POP POP POP POP JUMP JUMPDEST PUSH1 0x0 DUP1 PUSH1 0x40 DUP4 DUP6 SUB SLT ISZERO PUSH2 0x160F JUMPI PUSH1 0x0 DUP1 REVERT JUMPDEST DUP3 CALLDATALOAD SWAP2 POP PUSH2 0x161F PUSH1 0x20 DUP5 ADD PUSH2 0x1580 JUMP JUMPDEST SWAP1 POP SWAP3 POP SWAP3 SWAP1 POP JUMP JUMPDEST PUSH1 0xC0 DUP2 MSTORE PUSH1 0x0 PUSH2 0x163B PUSH1 0xC0 DUP4 ADD DUP10 PUSH2 0x13BE JUMP JUMPDEST DUP3 DUP2 SUB PUSH1 0x20 DUP5 ADD MSTORE PUSH2 0x164D DUP2 DUP10 PUSH2 0x13BE JUMP JUMPDEST PUSH1 0x40 DUP5 ADD SWAP8 SWAP1 SWAP8 MSTORE POP POP PUSH1 0x1 PUSH1 0x1 PUSH1 0xA0 SHL SUB SWAP4 SWAP1 SWAP4 AND PUSH1 0x60 DUP5 ADD MSTORE PUSH1 0x80 DUP4 ADD SWAP2 SWAP1 SWAP2 MSTORE ISZERO ISZERO PUSH1 0xA0 SWAP1 SWAP2 ADD MSTORE SWAP3 SWAP2 POP POP JUMP JUMPDEST PUSH1 0x0 DUP1 PUSH1 0x0 PUSH1 0x60 DUP5 DUP7 SUB SLT ISZERO PUSH2 0x1693 JUMPI PUSH1 0x0 DUP1 REVERT JUMPDEST DUP4 CALLDATALOAD PUSH8 0xFFFFFFFFFFFFFFFF DUP1 DUP3 GT ISZERO PUSH2 0x16AB JUMPI PUSH1 0x0 DUP1 REVERT JUMPDEST PUSH2 0x16B7 DUP8 DUP4 DUP9 ADD PUSH2 0x146A JUMP JUMPDEST SWAP5 POP PUSH2 0x16C5 PUSH1 0x20 DUP8 ADD PUSH2 0x1580 JUMP JUMPDEST SWAP4 POP PUSH1 0x40 DUP7 ADD CALLDATALOAD SWAP2 POP DUP1 DUP3 GT ISZERO PUSH2 0x16DB JUMPI PUSH1 0x0 DUP1 REVERT JUMPDEST POP PUSH2 0x16E8 DUP7 DUP3 DUP8 ADD PUSH2 0x146A JUMP JUMPDEST SWAP2 POP POP SWAP3 POP SWAP3 POP SWAP3 JUMP JUMPDEST PUSH1 0x0 DUP1 PUSH1 0x40 DUP4 DUP6 SUB SLT ISZERO PUSH2 0x1705 JUMPI PUSH1 0x0 DUP1 REVERT JUMPDEST PUSH2 0x170E DUP4 PUSH2 0x1580 JUMP JUMPDEST SWAP2 POP PUSH1 0x20 DUP4 ADD CALLDATALOAD PUSH8 0xFFFFFFFFFFFFFFFF DUP2 GT ISZERO PUSH2 0x172A JUMPI PUSH1 0x0 DUP1 REVERT JUMPDEST PUSH2 0x1736 DUP6 DUP3 DUP7 ADD PUSH2 0x146A JUMP JUMPDEST SWAP2 POP POP SWAP3 POP SWAP3 SWAP1 POP JUMP JUMPDEST PUSH1 0x0 DUP1 PUSH1 0x0 PUSH1 0x60 DUP5 DUP7 SUB SLT ISZERO PUSH2 0x1755 JUMPI PUSH1 0x0 DUP1 REVERT JUMPDEST DUP4 CALLDATALOAD PUSH8 0xFFFFFFFFFFFFFFFF DUP2 GT ISZERO PUSH2 0x176C JUMPI PUSH1 0x0 DUP1 REVERT JUMPDEST PUSH2 0x1778 DUP7 DUP3 DUP8 ADD PUSH2 0x146A JUMP JUMPDEST SWAP4 POP POP PUSH2 0x1787 PUSH1 0x20 DUP6 ADD PUSH2 0x1580 JUMP JUMPDEST SWAP2 POP PUSH1 0x40 DUP5 ADD CALLDATALOAD SWAP1 POP SWAP3 POP SWAP3 POP SWAP3 JUMP JUMPDEST PUSH1 0x0 DUP1 PUSH1 0x0 DUP1 PUSH1 0x80 DUP6 DUP8 SUB SLT ISZERO PUSH2 0x17AD JUMPI PUSH1 0x0 DUP1 REVERT JUMPDEST DUP5 CALLDATALOAD PUSH8 0xFFFFFFFFFFFFFFFF DUP1 DUP3 GT ISZERO PUSH2 0x17C5 JUMPI PUSH1 0x0 DUP1 REVERT JUMPDEST PUSH2 0x17D1 DUP9 DUP4 DUP10 ADD PUSH2 0x146A JUMP JUMPDEST SWAP6 POP PUSH1 0x20 DUP8 ADD CALLDATALOAD SWAP2 POP DUP1 DUP3 GT ISZERO PUSH2 0x17E7 JUMPI PUSH1 0x0 DUP1 REVERT JUMPDEST PUSH2 0x17F3 DUP9 DUP4 DUP10 ADD PUSH2 0x146A JUMP JUMPDEST SWAP5 POP PUSH1 0x40 DUP8 ADD CALLDATALOAD SWAP2 POP DUP1 DUP3 GT ISZERO PUSH2 0x1809 JUMPI PUSH1 0x0 DUP1 REVERT JUMPDEST POP PUSH2 0x1816 DUP8 DUP3 DUP9 ADD PUSH2 0x146A JUMP JUMPDEST SWAP5 SWAP8 SWAP4 SWAP7 POP SWAP4 SWAP5 PUSH1 0x60 ADD CALLDATALOAD SWAP4 POP POP POP JUMP JUMPDEST PUSH1 0x1 DUP2 DUP2 SHR SWAP1 DUP3 AND DUP1 PUSH2 0x183B JUMPI PUSH1 0x7F DUP3 AND SWAP2 POP JUMPDEST PUSH1 0x20 DUP3 LT DUP2 SUB PUSH2 0x185B JUMPI PUSH4 0x4E487B71 PUSH1 0xE0 SHL PUSH1 0x0 MSTORE PUSH1 0x22 PUSH1 0x4 MSTORE PUSH1 0x24 PUSH1 0x0 REVERT JUMPDEST POP SWAP2 SWAP1 POP JUMP JUMPDEST PUSH1 0x0 DUP3 MLOAD PUSH2 0x1873 DUP2 DUP5 PUSH1 0x20 DUP8 ADD PUSH2 0x139A JUMP JUMPDEST SWAP2 SWAP1 SWAP2 ADD SWAP3 SWAP2 POP POP JUMP JUMPDEST PUSH1 0x40 DUP2 MSTORE PUSH1 0x0 PUSH2 0x1890 PUSH1 0x40 DUP4 ADD DUP6 PUSH2 0x13BE JUMP JUMPDEST SWAP1 POP DUP3 PUSH1 0x20 DUP4 ADD MSTORE SWAP4 SWAP3 POP POP POP JUMP JUMPDEST PUSH1 0x0 DUP1 DUP4 SLOAD PUSH2 0x18AD DUP2 PUSH2 0x1827 JUMP JUMPDEST PUSH1 0x1 DUP3 DUP2 AND DUP1 ISZERO PUSH2 0x18C5 JUMPI PUSH1 0x1 DUP2 EQ PUSH2 0x18DA JUMPI PUSH2 0x1909 JUMP JUMPDEST PUSH1 0xFF NOT DUP5 AND DUP8 MSTORE DUP3 ISZERO ISZERO DUP4 MUL DUP8 ADD SWAP5 POP PUSH2 0x1909 JUMP JUMPDEST DUP8 PUSH1 0x0 MSTORE PUSH1 0x20 DUP1 PUSH1 0x0 KECCAK256 PUSH1 0x0 JUMPDEST DUP6 DUP2 LT ISZERO PUSH2 0x1900 JUMPI DUP2 SLOAD DUP11 DUP3 ADD MSTORE SWAP1 DUP5 ADD SWAP1 DUP3 ADD PUSH2 0x18E7 JUMP JUMPDEST POP POP POP DUP3 DUP8 ADD SWAP5 POP JUMPDEST POP SWAP3 SWAP7 SWAP6 POP POP POP POP POP POP JUMP JUMPDEST PUSH1 0x1F DUP3 GT ISZERO PUSH2 0x740 JUMPI PUSH1 0x0 DUP2 DUP2 MSTORE PUSH1 0x20 DUP2 KECCAK256 PUSH1 0x1F DUP6 ADD PUSH1 0x5 SHR DUP2 ADD PUSH1 0x20 DUP7 LT ISZERO PUSH2 0x193C JUMPI POP DUP1 JUMPDEST PUSH1 0x1F DUP6 ADD PUSH1 0x5 SHR DUP3 ADD SWAP2 POP JUMPDEST DUP2 DUP2 LT ISZERO PUSH2 0x195B JUMPI DUP3 DUP2 SSTORE PUSH1 0x1 ADD PUSH2 0x1948 JUMP JUMPDEST POP POP POP POP POP POP JUMP JUMPDEST DUP2 MLOAD PUSH8 0xFFFFFFFFFFFFFFFF DUP2 GT ISZERO PUSH2 0x197D JUMPI PUSH2 0x197D PUSH2 0x1454 JUMP JUMPDEST PUSH2 0x1991 DUP2 PUSH2 0x198B DUP5 SLOAD PUSH2 0x1827 JUMP JUMPDEST DUP5 PUSH2 0x1915 JUMP JUMPDEST PUSH1 0x20 DUP1 PUSH1 0x1F DUP4 GT PUSH1 0x1 DUP2 EQ PUSH2 0x19C6 JUMPI PUSH1 0x0 DUP5 ISZERO PUSH2 0x19AE JUMPI POP DUP6 DUP4 ADD MLOAD JUMPDEST PUSH1 0x0 NOT PUSH1 0x3 DUP7 SWAP1 SHL SHR NOT AND PUSH1 0x1 DUP6 SWAP1 SHL OR DUP6 SSTORE PUSH2 0x195B JUMP JUMPDEST PUSH1 0x0 DUP6 DUP2 MSTORE PUSH1 0x20 DUP2 KECCAK256 PUSH1 0x1F NOT DUP7 AND SWAP2 JUMPDEST DUP3 DUP2 LT ISZERO PUSH2 0x19F5 JUMPI DUP9 DUP7 ADD MLOAD DUP3 SSTORE SWAP5 DUP5 ADD SWAP5 PUSH1 0x1 SWAP1 SWAP2 ADD SWAP1 DUP5 ADD PUSH2 0x19D6 JUMP JUMPDEST POP DUP6 DUP3 LT ISZERO PUSH2 0x1A13 JUMPI DUP8 DUP6 ADD MLOAD PUSH1 0x0 NOT PUSH1 0x3 DUP9 SWAP1 SHL PUSH1 0xF8 AND SHR NOT AND DUP2 SSTORE JUMPDEST POP POP POP POP POP PUSH1 0x1 SWAP1 DUP2 SHL ADD SWAP1 SSTORE POP JUMP JUMPDEST PUSH32 0x416363657373436F6E74726F6C3A206163636F756E7420000000000000000000 DUP2 MSTORE PUSH1 0x0 DUP4 MLOAD PUSH2 0x1A5B DUP2 PUSH1 0x17 DUP6 ADD PUSH1 0x20 DUP9 ADD PUSH2 0x139A JUMP JUMPDEST PUSH17 0x1034B99036B4B9B9B4B733903937B6329 PUSH1 0x7D SHL PUSH1 0x17 SWAP2 DUP5 ADD SWAP2 DUP3 ADD MSTORE DUP4 MLOAD PUSH2 0x1A8C DUP2 PUSH1 0x28 DUP5 ADD PUSH1 0x20 DUP9 ADD PUSH2 0x139A JUMP JUMPDEST ADD PUSH1 0x28 ADD SWAP5 SWAP4 POP POP POP POP JUMP JUMPDEST PUSH1 0x20 DUP2 MSTORE PUSH1 0x0 PUSH2 0x137A PUSH1 0x20 DUP4 ADD DUP5 PUSH2 0x13BE JUMP JUMPDEST PUSH4 0x4E487B71 PUSH1 0xE0 SHL PUSH1 0x0 MSTORE PUSH1 0x11 PUSH1 0x4 MSTORE PUSH1 0x24 PUSH1 0x0 REVERT JUMPDEST DUP1 DUP3 MUL DUP2 ISZERO DUP3 DUP3 DIV DUP5 EQ OR PUSH2 0x496 JUMPI PUSH2 0x496 PUSH2 0x1AAB JUMP JUMPDEST DUP1 DUP3 ADD DUP1 DUP3 GT ISZERO PUSH2 0x496 JUMPI PUSH2 0x496 PUSH2 0x1AAB JUMP JUMPDEST PUSH4 0x4E487B71 PUSH1 0xE0 SHL PUSH1 0x0 MSTORE PUSH1 0x32 PUSH1 0x4 MSTORE PUSH1 0x24 PUSH1 0x0 REVERT JUMPDEST PUSH1 0x0 DUP2 PUSH2 0x1B10 JUMPI PUSH2 0x1B10 PUSH2 0x1AAB JUMP JUMPDEST POP PUSH1 0x0 NOT ADD SWAP1 JUMP INVALID LOG2 PUSH5 0x6970667358 0x22 SLT KECCAK256 PUSH0 0xD2 0x1F GAS 0xE5 0xAB 0xCE SWAP2 SLT 0x2A MUL LOG0 SAR 0x5C 0xDD ADD 0xB4 PUSH26 0x3E5650EFFD11DDA73A3EFD72F4C064736F6C6343000814003300 "},"methodIdentifiers":{"DEFAULT_ADMIN_ROLE()":"a217fddf","HOSPITAL_ROLE()":"f6ba6678","INSURER_ROLE()":"056c9989","accessTokens(uint256)":"00af701f","addHospital(address)":"1b470bc7","addInsurer(address)":"c1b5fb06","checkAccess(address,string)":"a5657a91","getAccessToken(uint256)":"991acf6e","getRecord(string)":"11dd8845","getRoleAdmin(bytes32)":"248a9ca3","grantAccess(string,address,uint256)":"e5492e2b","grantRole(bytes32,address)":"2f2ff15d","hasAccess(address,string)":"a8ccb291","hasRole(bytes32,address)":"91d14854","logAccess(string,address,string)":"7af6ac30","patientAccessTokens(string,uint256)":"25db80fc","records(string)":"541e771d","registerDocument(string,string,string,bytes32)":"f11f7084","renounceRole(bytes32,address)":"36568abe","revokeAccess(uint256)":"e1b97d69","revokeRole(bytes32,address)":"d547741f","supportsInterface(bytes4)":"01ffc9a7"}}}}}